{
  "_format": "hh-sol-artifact-1",
  "contractName": "Tournament",
  "sourceName": "contracts/Tournament.sol",
  "abi": [
    {
      "inputs": [
        {
          "internalType": "address",
          "name": "_worldId",
          "type": "address"
        },
        {
          "internalType": "uint256",
          "name": "_groupId",
          "type": "uint256"
        },
        {
          "internalType": "uint256",
          "name": "_externalNullifier",
          "type": "uint256"
        },
        {
          "internalType": "address",
          "name": "_gameResults",
          "type": "address"
        },
        {
          "internalType": "address",
          "name": "_feeRecipient",
          "type": "address"
        }
      ],
      "stateMutability": "nonpayable",
      "type": "constructor"
    },
    {
      "inputs": [],
      "name": "AlreadyFinalized",
      "type": "error"
    },
    {
      "inputs": [],
      "name": "AlreadyRegistered",
      "type": "error"
    },
    {
      "inputs": [],
      "name": "CancelConditionsNotMet",
      "type": "error"
    },
    {
      "inputs": [],
      "name": "FinalNotResolved",
      "type": "error"
    },
    {
      "inputs": [],
      "name": "GameNotAssigned",
      "type": "error"
    },
    {
      "inputs": [],
      "name": "InvalidConfig",
      "type": "error"
    },
    {
      "inputs": [],
      "name": "MatchAlreadyResolved",
      "type": "error"
    },
    {
      "inputs": [],
      "name": "MatchNotFound",
      "type": "error"
    },
    {
      "inputs": [],
      "name": "MatchNotReady",
      "type": "error"
    },
    {
      "inputs": [],
      "name": "NotActive",
      "type": "error"
    },
    {
      "inputs": [],
      "name": "NotCancelled",
      "type": "error"
    },
    {
      "inputs": [],
      "name": "NotCreator",
      "type": "error"
    },
    {
      "inputs": [],
      "name": "NotInRegistration",
      "type": "error"
    },
    {
      "inputs": [],
      "name": "NothingToClaim",
      "type": "error"
    },
    {
      "inputs": [],
      "name": "NullifierUsed",
      "type": "error"
    },
    {
      "inputs": [
        {
          "internalType": "address",
          "name": "owner",
          "type": "address"
        }
      ],
      "name": "OwnableInvalidOwner",
      "type": "error"
    },
    {
      "inputs": [
        {
          "internalType": "address",
          "name": "account",
          "type": "address"
        }
      ],
      "name": "OwnableUnauthorizedAccount",
      "type": "error"
    },
    {
      "inputs": [],
      "name": "ReentrancyGuardReentrantCall",
      "type": "error"
    },
    {
      "inputs": [],
      "name": "RegistrationClosed",
      "type": "error"
    },
    {
      "inputs": [],
      "name": "RegistrationFull",
      "type": "error"
    },
    {
      "inputs": [],
      "name": "SponsorAlreadySet",
      "type": "error"
    },
    {
      "inputs": [],
      "name": "StartConditionsNotMet",
      "type": "error"
    },
    {
      "inputs": [],
      "name": "TournamentNotFound",
      "type": "error"
    },
    {
      "inputs": [],
      "name": "TransferFailed",
      "type": "error"
    },
    {
      "inputs": [],
      "name": "WinnerNotInMatch",
      "type": "error"
    },
    {
      "inputs": [],
      "name": "WrongEntryFee",
      "type": "error"
    },
    {
      "anonymous": false,
      "inputs": [
        {
          "indexed": true,
          "internalType": "uint256",
          "name": "tournamentId",
          "type": "uint256"
        },
        {
          "indexed": true,
          "internalType": "uint256",
          "name": "matchId",
          "type": "uint256"
        },
        {
          "indexed": false,
          "internalType": "uint256",
          "name": "gameId",
          "type": "uint256"
        }
      ],
      "name": "MatchGameAssigned",
      "type": "event"
    },
    {
      "anonymous": false,
      "inputs": [
        {
          "indexed": true,
          "internalType": "uint256",
          "name": "tournamentId",
          "type": "uint256"
        },
        {
          "indexed": true,
          "internalType": "uint256",
          "name": "matchId",
          "type": "uint256"
        },
        {
          "indexed": false,
          "internalType": "address",
          "name": "winner",
          "type": "address"
        },
        {
          "indexed": false,
          "internalType": "bytes32",
          "name": "walrusBlobId",
          "type": "bytes32"
        }
      ],
      "name": "MatchResolved",
      "type": "event"
    },
    {
      "anonymous": false,
      "inputs": [
        {
          "indexed": true,
          "internalType": "uint256",
          "name": "tournamentId",
          "type": "uint256"
        },
        {
          "indexed": true,
          "internalType": "uint256",
          "name": "matchId",
          "type": "uint256"
        },
        {
          "indexed": false,
          "internalType": "uint8",
          "name": "round",
          "type": "uint8"
        }
      ],
      "name": "NextRoundMatchCreated",
      "type": "event"
    },
    {
      "anonymous": false,
      "inputs": [
        {
          "indexed": true,
          "internalType": "address",
          "name": "previousOwner",
          "type": "address"
        },
        {
          "indexed": true,
          "internalType": "address",
          "name": "newOwner",
          "type": "address"
        }
      ],
      "name": "OwnershipTransferred",
      "type": "event"
    },
    {
      "anonymous": false,
      "inputs": [
        {
          "indexed": true,
          "internalType": "uint256",
          "name": "tournamentId",
          "type": "uint256"
        },
        {
          "indexed": true,
          "internalType": "address",
          "name": "player",
          "type": "address"
        },
        {
          "indexed": false,
          "internalType": "uint256",
          "name": "amount",
          "type": "uint256"
        }
      ],
      "name": "PrizeClaimed",
      "type": "event"
    },
    {
      "anonymous": false,
      "inputs": [
        {
          "indexed": true,
          "internalType": "uint256",
          "name": "tournamentId",
          "type": "uint256"
        },
        {
          "indexed": true,
          "internalType": "address",
          "name": "player",
          "type": "address"
        },
        {
          "indexed": false,
          "internalType": "uint256",
          "name": "amount",
          "type": "uint256"
        }
      ],
      "name": "Refunded",
      "type": "event"
    },
    {
      "anonymous": false,
      "inputs": [
        {
          "indexed": true,
          "internalType": "uint256",
          "name": "tournamentId",
          "type": "uint256"
        },
        {
          "indexed": true,
          "internalType": "address",
          "name": "player",
          "type": "address"
        },
        {
          "indexed": false,
          "internalType": "uint256",
          "name": "nullifierHash",
          "type": "uint256"
        }
      ],
      "name": "Registered",
      "type": "event"
    },
    {
      "anonymous": false,
      "inputs": [
        {
          "indexed": true,
          "internalType": "uint256",
          "name": "tournamentId",
          "type": "uint256"
        },
        {
          "indexed": true,
          "internalType": "address",
          "name": "sponsor",
          "type": "address"
        },
        {
          "indexed": false,
          "internalType": "uint256",
          "name": "amount",
          "type": "uint256"
        }
      ],
      "name": "SponsorAdded",
      "type": "event"
    },
    {
      "anonymous": false,
      "inputs": [
        {
          "indexed": true,
          "internalType": "uint256",
          "name": "tournamentId",
          "type": "uint256"
        }
      ],
      "name": "TournamentCancelled",
      "type": "event"
    },
    {
      "anonymous": false,
      "inputs": [
        {
          "indexed": true,
          "internalType": "uint256",
          "name": "tournamentId",
          "type": "uint256"
        },
        {
          "indexed": true,
          "internalType": "address",
          "name": "creator",
          "type": "address"
        },
        {
          "indexed": false,
          "internalType": "uint256",
          "name": "entryFee",
          "type": "uint256"
        },
        {
          "indexed": false,
          "internalType": "uint32",
          "name": "minPlayers",
          "type": "uint32"
        },
        {
          "indexed": false,
          "internalType": "uint32",
          "name": "maxPlayers",
          "type": "uint32"
        },
        {
          "indexed": false,
          "internalType": "uint64",
          "name": "lastStartTime",
          "type": "uint64"
        }
      ],
      "name": "TournamentCreated",
      "type": "event"
    },
    {
      "anonymous": false,
      "inputs": [
        {
          "indexed": true,
          "internalType": "uint256",
          "name": "tournamentId",
          "type": "uint256"
        },
        {
          "indexed": false,
          "internalType": "address",
          "name": "champion",
          "type": "address"
        },
        {
          "indexed": false,
          "internalType": "address",
          "name": "runnerUp",
          "type": "address"
        }
      ],
      "name": "TournamentFinalized",
      "type": "event"
    },
    {
      "anonymous": false,
      "inputs": [
        {
          "indexed": true,
          "internalType": "uint256",
          "name": "tournamentId",
          "type": "uint256"
        },
        {
          "indexed": false,
          "internalType": "uint8",
          "name": "totalRounds",
          "type": "uint8"
        },
        {
          "indexed": false,
          "internalType": "uint256",
          "name": "matchCount",
          "type": "uint256"
        }
      ],
      "name": "TournamentStarted",
      "type": "event"
    },
    {
      "inputs": [],
      "name": "PROTOCOL_FEE_BPS",
      "outputs": [
        {
          "internalType": "uint16",
          "name": "",
          "type": "uint16"
        }
      ],
      "stateMutability": "view",
      "type": "function"
    },
    {
      "inputs": [
        {
          "internalType": "uint256",
          "name": "tournamentId",
          "type": "uint256"
        }
      ],
      "name": "addSponsorPrize",
      "outputs": [],
      "stateMutability": "payable",
      "type": "function"
    },
    {
      "inputs": [
        {
          "internalType": "uint256",
          "name": "tournamentId",
          "type": "uint256"
        },
        {
          "internalType": "uint256",
          "name": "matchId",
          "type": "uint256"
        },
        {
          "internalType": "uint256",
          "name": "gameId",
          "type": "uint256"
        }
      ],
      "name": "assignMatchGame",
      "outputs": [],
      "stateMutability": "nonpayable",
      "type": "function"
    },
    {
      "inputs": [
        {
          "internalType": "uint256",
          "name": "tournamentId",
          "type": "uint256"
        }
      ],
      "name": "cancel",
      "outputs": [],
      "stateMutability": "nonpayable",
      "type": "function"
    },
    {
      "inputs": [
        {
          "internalType": "uint256",
          "name": "tournamentId",
          "type": "uint256"
        }
      ],
      "name": "claim",
      "outputs": [],
      "stateMutability": "nonpayable",
      "type": "function"
    },
    {
      "inputs": [
        {
          "internalType": "uint256",
          "name": "tournamentId",
          "type": "uint256"
        }
      ],
      "name": "claimRefund",
      "outputs": [],
      "stateMutability": "nonpayable",
      "type": "function"
    },
    {
      "inputs": [
        {
          "components": [
            {
              "internalType": "uint256",
              "name": "entryFee",
              "type": "uint256"
            },
            {
              "internalType": "uint32",
              "name": "minPlayers",
              "type": "uint32"
            },
            {
              "internalType": "uint32",
              "name": "maxPlayers",
              "type": "uint32"
            },
            {
              "internalType": "uint64",
              "name": "lastStartTime",
              "type": "uint64"
            },
            {
              "internalType": "uint256",
              "name": "costLimit",
              "type": "uint256"
            },
            {
              "internalType": "uint256",
              "name": "turnTime",
              "type": "uint256"
            },
            {
              "internalType": "uint256",
              "name": "selectedMapId",
              "type": "uint256"
            },
            {
              "internalType": "uint256",
              "name": "maxScore",
              "type": "uint256"
            }
          ],
          "internalType": "struct Tournament.TournamentConfig",
          "name": "cfg",
          "type": "tuple"
        }
      ],
      "name": "createTournament",
      "outputs": [
        {
          "internalType": "uint256",
          "name": "tournamentId",
          "type": "uint256"
        }
      ],
      "stateMutability": "payable",
      "type": "function"
    },
    {
      "inputs": [],
      "name": "externalNullifier",
      "outputs": [
        {
          "internalType": "uint256",
          "name": "",
          "type": "uint256"
        }
      ],
      "stateMutability": "view",
      "type": "function"
    },
    {
      "inputs": [],
      "name": "feeRecipient",
      "outputs": [
        {
          "internalType": "address",
          "name": "",
          "type": "address"
        }
      ],
      "stateMutability": "view",
      "type": "function"
    },
    {
      "inputs": [
        {
          "internalType": "uint256",
          "name": "tournamentId",
          "type": "uint256"
        }
      ],
      "name": "finalize",
      "outputs": [],
      "stateMutability": "nonpayable",
      "type": "function"
    },
    {
      "inputs": [],
      "name": "gameResults",
      "outputs": [
        {
          "internalType": "contract IGameResultsReader",
          "name": "",
          "type": "address"
        }
      ],
      "stateMutability": "view",
      "type": "function"
    },
    {
      "inputs": [
        {
          "internalType": "uint256",
          "name": "tournamentId",
          "type": "uint256"
        }
      ],
      "name": "getBracket",
      "outputs": [
        {
          "components": [
            {
              "internalType": "uint256",
              "name": "matchId",
              "type": "uint256"
            },
            {
              "internalType": "uint8",
              "name": "round",
              "type": "uint8"
            },
            {
              "internalType": "address",
              "name": "player1",
              "type": "address"
            },
            {
              "internalType": "address",
              "name": "player2",
              "type": "address"
            },
            {
              "internalType": "address",
              "name": "winner",
              "type": "address"
            },
            {
              "internalType": "uint256",
              "name": "gameId",
              "type": "uint256"
            },
            {
              "internalType": "bytes32",
              "name": "walrusBlobId",
              "type": "bytes32"
            },
            {
              "internalType": "bool",
              "name": "resolved",
              "type": "bool"
            }
          ],
          "internalType": "struct Tournament.Match[]",
          "name": "",
          "type": "tuple[]"
        }
      ],
      "stateMutability": "view",
      "type": "function"
    },
    {
      "inputs": [
        {
          "internalType": "uint256",
          "name": "tournamentId",
          "type": "uint256"
        },
        {
          "internalType": "uint256",
          "name": "matchId",
          "type": "uint256"
        }
      ],
      "name": "getMatch",
      "outputs": [
        {
          "components": [
            {
              "internalType": "uint256",
              "name": "matchId",
              "type": "uint256"
            },
            {
              "internalType": "uint8",
              "name": "round",
              "type": "uint8"
            },
            {
              "internalType": "address",
              "name": "player1",
              "type": "address"
            },
            {
              "internalType": "address",
              "name": "player2",
              "type": "address"
            },
            {
              "internalType": "address",
              "name": "winner",
              "type": "address"
            },
            {
              "internalType": "uint256",
              "name": "gameId",
              "type": "uint256"
            },
            {
              "internalType": "bytes32",
              "name": "walrusBlobId",
              "type": "bytes32"
            },
            {
              "internalType": "bool",
              "name": "resolved",
              "type": "bool"
            }
          ],
          "internalType": "struct Tournament.Match",
          "name": "",
          "type": "tuple"
        }
      ],
      "stateMutability": "view",
      "type": "function"
    },
    {
      "inputs": [
        {
          "internalType": "uint256",
          "name": "tournamentId",
          "type": "uint256"
        }
      ],
      "name": "getRegistrants",
      "outputs": [
        {
          "internalType": "address[]",
          "name": "",
          "type": "address[]"
        }
      ],
      "stateMutability": "view",
      "type": "function"
    },
    {
      "inputs": [
        {
          "internalType": "uint256",
          "name": "tournamentId",
          "type": "uint256"
        }
      ],
      "name": "getTournamentConfig",
      "outputs": [
        {
          "components": [
            {
              "internalType": "uint256",
              "name": "entryFee",
              "type": "uint256"
            },
            {
              "internalType": "uint32",
              "name": "minPlayers",
              "type": "uint32"
            },
            {
              "internalType": "uint32",
              "name": "maxPlayers",
              "type": "uint32"
            },
            {
              "internalType": "uint64",
              "name": "lastStartTime",
              "type": "uint64"
            },
            {
              "internalType": "uint256",
              "name": "costLimit",
              "type": "uint256"
            },
            {
              "internalType": "uint256",
              "name": "turnTime",
              "type": "uint256"
            },
            {
              "internalType": "uint256",
              "name": "selectedMapId",
              "type": "uint256"
            },
            {
              "internalType": "uint256",
              "name": "maxScore",
              "type": "uint256"
            }
          ],
          "internalType": "struct Tournament.TournamentConfig",
          "name": "",
          "type": "tuple"
        }
      ],
      "stateMutability": "view",
      "type": "function"
    },
    {
      "inputs": [
        {
          "internalType": "uint256",
          "name": "tournamentId",
          "type": "uint256"
        }
      ],
      "name": "getTournamentSummary",
      "outputs": [
        {
          "internalType": "enum Tournament.TournamentState",
          "name": "state",
          "type": "uint8"
        },
        {
          "internalType": "address",
          "name": "creator",
          "type": "address"
        },
        {
          "internalType": "uint256",
          "name": "prizePool",
          "type": "uint256"
        },
        {
          "internalType": "uint256",
          "name": "registrantCount",
          "type": "uint256"
        },
        {
          "internalType": "uint8",
          "name": "totalRounds",
          "type": "uint8"
        },
        {
          "internalType": "address",
          "name": "champion",
          "type": "address"
        },
        {
          "internalType": "address",
          "name": "runnerUp",
          "type": "address"
        }
      ],
      "stateMutability": "view",
      "type": "function"
    },
    {
      "inputs": [],
      "name": "groupId",
      "outputs": [
        {
          "internalType": "uint256",
          "name": "",
          "type": "uint256"
        }
      ],
      "stateMutability": "view",
      "type": "function"
    },
    {
      "inputs": [
        {
          "internalType": "uint256",
          "name": "tournamentId",
          "type": "uint256"
        },
        {
          "internalType": "address",
          "name": "player",
          "type": "address"
        }
      ],
      "name": "isRegistered",
      "outputs": [
        {
          "internalType": "bool",
          "name": "",
          "type": "bool"
        }
      ],
      "stateMutability": "view",
      "type": "function"
    },
    {
      "inputs": [],
      "name": "owner",
      "outputs": [
        {
          "internalType": "address",
          "name": "",
          "type": "address"
        }
      ],
      "stateMutability": "view",
      "type": "function"
    },
    {
      "inputs": [
        {
          "internalType": "uint256",
          "name": "tournamentId",
          "type": "uint256"
        },
        {
          "internalType": "uint256",
          "name": "matchId",
          "type": "uint256"
        },
        {
          "internalType": "bytes32",
          "name": "walrusBlobId",
          "type": "bytes32"
        }
      ],
      "name": "recordResult",
      "outputs": [],
      "stateMutability": "nonpayable",
      "type": "function"
    },
    {
      "inputs": [
        {
          "internalType": "uint256",
          "name": "tournamentId",
          "type": "uint256"
        },
        {
          "internalType": "uint256",
          "name": "root",
          "type": "uint256"
        },
        {
          "internalType": "uint256",
          "name": "nullifierHash",
          "type": "uint256"
        },
        {
          "internalType": "uint256[8]",
          "name": "proof",
          "type": "uint256[8]"
        }
      ],
      "name": "register",
      "outputs": [],
      "stateMutability": "payable",
      "type": "function"
    },
    {
      "inputs": [],
      "name": "renounceOwnership",
      "outputs": [],
      "stateMutability": "nonpayable",
      "type": "function"
    },
    {
      "inputs": [
        {
          "internalType": "uint256",
          "name": "tournamentId",
          "type": "uint256"
        },
        {
          "internalType": "uint256",
          "name": "matchId",
          "type": "uint256"
        },
        {
          "internalType": "bytes32",
          "name": "walrusBlobId",
          "type": "bytes32"
        }
      ],
      "name": "resolveDraw",
      "outputs": [],
      "stateMutability": "nonpayable",
      "type": "function"
    },
    {
      "inputs": [
        {
          "internalType": "uint256",
          "name": "_externalNullifier",
          "type": "uint256"
        }
      ],
      "name": "setExternalNullifier",
      "outputs": [],
      "stateMutability": "nonpayable",
      "type": "function"
    },
    {
      "inputs": [
        {
          "internalType": "address",
          "name": "_feeRecipient",
          "type": "address"
        }
      ],
      "name": "setFeeRecipient",
      "outputs": [],
      "stateMutability": "nonpayable",
      "type": "function"
    },
    {
      "inputs": [
        {
          "internalType": "address",
          "name": "_worldId",
          "type": "address"
        }
      ],
      "name": "setWorldId",
      "outputs": [],
      "stateMutability": "nonpayable",
      "type": "function"
    },
    {
      "inputs": [
        {
          "internalType": "uint256",
          "name": "tournamentId",
          "type": "uint256"
        }
      ],
      "name": "start",
      "outputs": [],
      "stateMutability": "nonpayable",
      "type": "function"
    },
    {
      "inputs": [],
      "name": "tournamentCount",
      "outputs": [
        {
          "internalType": "uint256",
          "name": "",
          "type": "uint256"
        }
      ],
      "stateMutability": "view",
      "type": "function"
    },
    {
      "inputs": [
        {
          "internalType": "address",
          "name": "newOwner",
          "type": "address"
        }
      ],
      "name": "transferOwnership",
      "outputs": [],
      "stateMutability": "nonpayable",
      "type": "function"
    },
    {
      "inputs": [
        {
          "internalType": "uint256",
          "name": "tournamentId",
          "type": "uint256"
        },
        {
          "internalType": "address",
          "name": "player",
          "type": "address"
        }
      ],
      "name": "winningsOf",
      "outputs": [
        {
          "internalType": "uint256",
          "name": "",
          "type": "uint256"
        }
      ],
      "stateMutability": "view",
      "type": "function"
    },
    {
      "inputs": [],
      "name": "worldId",
      "outputs": [
        {
          "internalType": "contract IWorldID",
          "name": "",
          "type": "address"
        }
      ],
      "stateMutability": "view",
      "type": "function"
    }
  ],
  "bytecode": "0x60c060405234801561001057600080fd5b50604051612ea0380380612ea083398101604081905261002f91610111565b338061005557604051631e4fbdf760e01b81526000600482015260240160405180910390fd5b61005e816100a5565b5060018055600280546001600160a01b039687166001600160a01b031991821617909155608094909452600392909255831660a05260048054919093169116179055610169565b600080546001600160a01b038381166001600160a01b0319831681178455604051919092169283917f8be0079c531659141344cd1fd0a4f28419497f9722a3daafe3b4186f6b6457e09190a35050565b80516001600160a01b038116811461010c57600080fd5b919050565b600080600080600060a0868803121561012957600080fd5b610132866100f5565b602087015160408801519196509450925061014f606087016100f5565b915061015d608087016100f5565b90509295509295909350565b60805160a051612d0461019c600039600081816105af01526117550152600081816105030152610e920152612d046000f3fe6080604052600436106101685760003560e01c8063017c56551461016d57806305261aea146101a35780630dbf5972146101c5578063107cfe51146101e557806314f6b7cd146102125780632a77f958146102335780632b11fae5146102535780632d4b835d14610273578063379607f5146102865780633c85788e146102a65780633fbe4918146102d357806340e58ee51461036857806346904840146103885780635370158c146103b55780635b7baf64146103e857806369e7b038146104085780636e2b2c7c1461041b57806370bb640f14610431578063715018a614610447578063753e9ef01461045c578063758407561461047c5780638da5cb5b1461049c57806395805dad146104b15780639d5b2212146104d1578063a0f44c92146104f1578063aa38269014610525578063b81f6e1814610545578063be37822814610575578063ce720bca1461059d578063e74b981b146105d1578063f2fde38b146105f1575b600080fd5b34801561017957600080fd5b5061018d6101883660046126b4565b610611565b60405161019a91906126cd565b60405180910390f35b3480156101af57600080fd5b506101c36101be3660046126b4565b61067f565b005b3480156101d157600080fd5b506101c36101e03660046126b4565b6108af565b3480156101f157600080fd5b50610205610200366004612719565b6108bc565b60405161019a91906127b2565b6102256102203660046127c1565b61099a565b60405190815260200161019a565b34801561023f57600080fd5b506101c361024e3660046127dd565b610b3f565b34801561025f57600080fd5b506101c361026e36600461281e565b610cf8565b6101c3610281366004612842565b610d22565b34801561029257600080fd5b506101c36102a13660046126b4565b610fff565b3480156102b257600080fd5b506102c66102c13660046126b4565b6110a9565b60405161019a919061288a565b3480156102df57600080fd5b506102f36102ee3660046126b4565b611177565b60405161019a91906000610100820190508251825263ffffffff602084015116602083015263ffffffff604084015116604083015260018060401b0360608401511660608301526080830151608083015260a083015160a083015260c083015160c083015260e083015160e083015292915050565b34801561037457600080fd5b506101c36103833660046126b4565b611255565b34801561039457600080fd5b506004546103a8906001600160a01b031681565b60405161019a91906128ce565b3480156103c157600080fd5b506103d56103d03660046126b4565b611337565b60405161019a97969594939291906128f8565b3480156103f457600080fd5b506101c36104033660046126b4565b6113a7565b6101c36104163660046126b4565b6114ff565b34801561042757600080fd5b5061022560055481565b34801561043d57600080fd5b5061022560035481565b34801561045357600080fd5b506101c3611640565b34801561046857600080fd5b506002546103a8906001600160a01b031681565b34801561048857600080fd5b506101c36104973660046127dd565b611654565b3480156104a857600080fd5b506103a8611887565b3480156104bd57600080fd5b506101c36104cc3660046126b4565b611896565b3480156104dd57600080fd5b506101c36104ec3660046127dd565b6119c3565b3480156104fd57600080fd5b506102257f000000000000000000000000000000000000000000000000000000000000000081565b34801561053157600080fd5b5061022561054036600461295b565b611b34565b34801561055157600080fd5b5061056561056036600461295b565b611b64565b604051901515815260200161019a565b34801561058157600080fd5b5061058a606481565b60405161ffff909116815260200161019a565b3480156105a957600080fd5b506103a87f000000000000000000000000000000000000000000000000000000000000000081565b3480156105dd57600080fd5b506101c36105ec36600461281e565b611b97565b3480156105fd57600080fd5b506101c361060c36600461281e565b611bc1565b606061061c82611c05565b600b0180548060200260200160405190810160405280929190818152602001828054801561067357602002820191906000526020600020905b81546001600160a01b03168152600190910190602001808311610655575b50505050509050919050565b600061068a82611c05565b9050600180820154600160a01b900460ff1660038111156106ad576106ad6128e2565b146106cb57604051634065aaf160e11b815260040160405180910390fd5b6010810154600160281b90046001600160a01b03166106fd57604051630c480b2360e01b815260040160405180910390fd5b6011810154600160a01b900460ff161561072a5760405163475a253560e01b815260040160405180910390fd5b6008810154600061271061073f6064846129a1565b61074991906129ce565b9050600061075782846129e2565b9050600060646107688360286129a1565b61077291906129ce565b9050600061078082846129e2565b905083156107ba576004546001600160a01b03166000908152601287016020526040812080548692906107b49084906129f5565b90915550505b6010860154600160281b90046001600160a01b03166000908152601287016020526040812080548392906107ef9084906129f5565b909155505060118601546001600160a01b03166000908152601287016020526040812080548492906108229084906129f5565b909155505060118601805460ff60a01b19808216600160a01b17909255600188018054600160a11b9316929092179091556010870154604080516001600160a01b03600160281b9093048316815291909216602082015288917f5076daac779678247fca2bc6330e2fe09a5db8055d781a9ac025030d592dd65f910160405180910390a250505050505050565b6108b7611c3a565b600355565b6108c4612670565b60006108cf84611c05565b600f81015490915083106108f657604051631632113760e31b815260040160405180910390fd5b80600f01838154811061090b5761090b612a08565b6000918252602091829020604080516101008082018352600790940290920180548352600181015460ff808216968501969096526001600160a01b0394900484169183019190915260028101548316606083015260038101549092166080820152600482015460a0820152600582015460c0820152600690910154909116151560e08201529150505b92915050565b600060026109ae6040840160208501612a30565b63ffffffff1610806109e957506109cb6040830160208401612a30565b63ffffffff166109e16060840160408501612a30565b63ffffffff16105b80610a0c575042610a006080840160608501612a62565b6001600160401b031611155b15610a2a576040516306b7c75960e31b815260040160405180910390fd5b600560008154610a3990612a7f565b918290555060008181526006602052604090208181556001810180546001600160a81b0319163360ff60a01b19161790559091508260028201610a7c8282612ab2565b50503415610aa6576009810180546001600160a01b0319163317905534600a820181905560088201555b33827f88382649f7128b2cdd7b62121957ddd3ed1bacda591f56b984ee2c492f8425e88535610adb6040880160208901612a30565b610aeb6060890160408a01612a30565b610afb60808a0160608b01612a62565b604051610b31949392919093845263ffffffff9283166020850152911660408301526001600160401b0316606082015260800190565b60405180910390a350919050565b6000610b4a84611c05565b60018101549091506001600160a01b03163314610b7a576040516393687c0b60e01b815260040160405180910390fd5b600180820154600160a01b900460ff166003811115610b9b57610b9b6128e2565b14610bb957604051634065aaf160e11b815260040160405180910390fd5b600f8101548310610bdd57604051631632113760e31b815260040160405180910390fd5b600081600f018481548110610bf457610bf4612a08565b60009182526020909120600790910201600681015490915060ff1615610c2d5760405163347b471560e11b815260040160405180910390fd5b600181015461010090046001600160a01b03161580610c57575060028101546001600160a01b0316155b15610c7557604051633cd1363960e01b815260040160405180910390fd5b60028101546001600160a01b039081166000908152600d8401602052604080822054600185015461010090049093168252812054909163ffffffff90811691161115610cce5760028201546001600160a01b0316610ce2565b600182015461010090046001600160a01b03165b9050610cf083868387611c6c565b505050505050565b610d00611c3a565b600280546001600160a01b0319166001600160a01b0392909216919091179055565b6000610d2d85611c05565b905060006001820154600160a01b900460ff166003811115610d5157610d516128e2565b14610d6f5760405163b2ffb94160e01b815260040160405180910390fd5b6003810154600160401b90046001600160401b0316421115610da457604051632fc209f360e01b815260040160405180910390fd5b6003810154600b820154600160201b90910463ffffffff1611610dda5760405163059e438760e51b815260040160405180910390fd5b60028101543414610dfe57604051635425860560e01b815260040160405180910390fd5b336000908152600c8201602052604090205460ff1615610e3157604051630ea075bf60e21b815260040160405180910390fd5b6000838152600e8201602052604090205460ff1615610e6357604051639281498560e01b815260040160405180910390fd5b6002546040516001600160601b03193360601b1660208201526001600160a01b0390911690633bc778e39086907f000000000000000000000000000000000000000000000000000000000000000090610ecd90603401604051602081830303815290604052611d1a565b87600354886040518763ffffffff1660e01b8152600401610ef396959493929190612b75565b60006040518083038186803b158015610f0b57600080fd5b505afa158015610f1f573d6000803e3d6000fd5b5050506000848152600e8301602090815260408083208054600160ff19918216811790925533808652600c8801855283862080549092168317909155600b87018054928301815580865284862090920180546001600160a01b031916821790559054908452600d86019092528220805463ffffffff191663ffffffff909216919091179055600883018054349350909190610fbb9084906129f5565b9091555050604051838152339086907f39dd062cc095bf933d83338d8e4591b7eb119264d876f173cacb1cfdf2c9737f906020015b60405180910390a35050505050565b611007611d4f565b600061101282611c05565b336000908152601282016020526040812054919250819003611047576040516312d37ee560e31b815260040160405180910390fd5b3360008181526012840160205260408120556110639082611d79565b604051818152339084907f4aa95f981a8337cb337de335b965507da0879c3b49f799d20058e913f5ad2c26906020015b60405180910390a350506110a660018055565b50565b60606110b482611c05565b600f01805480602002602001604051908101604052809291908181526020016000905b8282101561116c576000848152602090819020604080516101008082018352600787029093018054825260018082015460ff808216858901526001600160a01b039690910486169484019490945260028201548516606084015260038201549094166080830152600481015460a0830152600581015460c083015260060154909116151560e0820152835290920191016110d7565b505050509050919050565b6111d460405180610100016040528060008152602001600063ffffffff168152602001600063ffffffff16815260200160006001600160401b03168152602001600081526020016000815260200160008152602001600081525090565b6111dd82611c05565b604080516101008101825260028301548152600383015463ffffffff8082166020840152600160201b82041692820192909252600160401b9091046001600160401b0316606082015260048201546080820152600582015460a0820152600682015460c082015260079091015460e082015292915050565b600061126082611c05565b905060006001820154600160a01b900460ff166003811115611284576112846128e2565b146112a25760405163b2ffb94160e01b815260040160405180910390fd5b6003810154600160401b90046001600160401b0316421115806112d557506003810154600b82015463ffffffff90911611155b156112f3576040516351072dd960e11b815260040160405180910390fd5b60018101805460ff60a01b1916600360a01b17905560405182907ffa61ec8d7e5a58ceba17772b10ba0c6caa65b40b200302be35f00efc264c789590600090a25050565b60008060008060008060008061134c89611c05565b60018101546008820154600b830154601084015460119094015460ff600160a01b850481169f6001600160a01b039586169f50939d50919b50600160201b85049091169950600160281b909304821697509116945092505050565b6113af611d4f565b60006113ba82611c05565b905060036001820154600160a01b900460ff1660038111156113de576113de6128e2565b146113fc57604051632069e45f60e11b815260040160405180910390fd5b336000908152600c8201602052604081205460ff16801561142f575033600090815260138301602052604090205460ff16155b15611462573360009081526013830160205260409020805460ff19166001179055600282015461145f90826129f5565b90505b60098201546001600160a01b0316331480156114825750600082600a0154115b156114a057600a82015461149690826129f5565b6000600a84015590505b806000036114c1576040516312d37ee560e31b815260040160405180910390fd5b6114cb3382611d79565b604051818152339084907f7ca5472b7ea78c2c0141c5a12ee6d170cf4ce8ed06be3d22c8252ddfc7a6a2c490602001611093565b600061150a82611c05565b905060006001820154600160a01b900460ff16600381111561152e5761152e6128e2565b1415801561155b5750600180820154600160a01b900460ff166003811115611558576115586128e2565b14155b156115795760405163b2ffb94160e01b815260040160405180910390fd5b60098101546001600160a01b03166115a4576009810180546001600160a01b031916331790556115d1565b60098101546001600160a01b031633146115d157604051630accfcbd60e01b815260040160405180910390fd5b3481600a0160008282546115e591906129f5565b925050819055503481600801600082825461160091906129f5565b9091555050604051348152339083907fd23aaa3ee60ce3f938e54e5b192945b974b53dd4a48edcf51ba4ce92de65021c9060200160405180910390a35050565b611648611c3a565b6116526000611df2565b565b600061165f84611c05565b9050600180820154600160a01b900460ff166003811115611682576116826128e2565b146116a057604051634065aaf160e11b815260040160405180910390fd5b600f81015483106116c457604051631632113760e31b815260040160405180910390fd5b600081600f0184815481106116db576116db612a08565b60009182526020909120600790910201600681015490915060ff16156117145760405163347b471560e11b815260040160405180910390fd5b806004015460000361173957604051630a57c4c760e11b815260040160405180910390fd5b60048181015460405163ed2df26d60e01b8152918201526000907f00000000000000000000000000000000000000000000000000000000000000006001600160a01b03169063ed2df26d90602401608060405180830381865afa1580156117a4573d6000803e3d6000fd5b505050506040513d601f19601f820116820180604052508101906117c89190612bce565b600183015460208201519192506000916001600160a01b039081166101009092041614801561180b5750600283015460408301516001600160a01b039081169116145b8061184e5750600283015460208301516001600160a01b03908116911614801561184e5750600183015460408301516001600160a01b0390811661010090920416145b90508061186e5760405163318dead960e21b815260040160405180910390fd5b61187e8487846020015188611c6c565b50505050505050565b6000546001600160a01b031690565b60006118a182611c05565b905060006001820154600160a01b900460ff1660038111156118c5576118c56128e2565b146118e35760405163b2ffb94160e01b815260040160405180910390fd5b600b8101546003820154600160201b810463ffffffff16821490600160401b90046001600160401b03164211818061192d575080801561192d5750600384015463ffffffff168310155b61194a57604051630785c4ed60e01b815260040160405180910390fd5b61195384611e42565b6001848101805460ff60a01b1916600160a01b8302179055506010840154600f85015460408051600160201b90930460ff168352602083019190915286917f1cbb79b9ac5cacc97e555f35e85b29ae94222e7950fc82deacab99dc89e11894910160405180910390a25050505050565b60006119ce84611c05565b60018101549091506001600160a01b031633146119fe576040516393687c0b60e01b815260040160405180910390fd5b600180820154600160a01b900460ff166003811115611a1f57611a1f6128e2565b14611a3d57604051634065aaf160e11b815260040160405180910390fd5b600f8101548310611a6157604051631632113760e31b815260040160405180910390fd5b600081600f018481548110611a7857611a78612a08565b60009182526020909120600790910201600681015490915060ff1615611ab15760405163347b471560e11b815260040160405180910390fd5b600181015461010090046001600160a01b03161580611adb575060028101546001600160a01b0316155b15611af957604051633cd1363960e01b815260040160405180910390fd5b60048101839055604051838152849086907fcd8ca704d15030df93d8199ffa8651f52f72779a341cbd4d8033007c1726be8690602001610ff0565b6000611b3f83611c05565b6001600160a01b03831660009081526012919091016020526040902054905092915050565b6000611b6f83611c05565b6001600160a01b0383166000908152600c91909101602052604090205460ff16905092915050565b611b9f611c3a565b600480546001600160a01b0319166001600160a01b0392909216919091179055565b611bc9611c3a565b6001600160a01b038116611bfc576000604051631e4fbdf760e01b8152600401611bf391906128ce565b60405180910390fd5b6110a681611df2565b60008181526006602052604081208054909103611c35576040516303361a2560e01b815260040160405180910390fd5b919050565b33611c43611887565b6001600160a01b031614611652573360405163118cdaa760e01b8152600401611bf391906128ce565b600084600f018481548110611c8357611c83612a08565b60009182526020918290206007909102016003810180546001600160a01b0319166001600160a01b0387169081179091556005820185905560068201805460ff1916600117905587546040805192835293820186905291935086927ffc2498ebcacb3aab54c13d1f4bfa8faeb05b522eda44b8e1670d244393124f80910160405180910390a3611d138585612287565b5050505050565b6000600882604051602001611d2f9190612c53565b60408051601f198184030181529190528051602090910120901c92915050565b600260015403611d7257604051633ee5aeb560e01b815260040160405180910390fd5b6002600155565b6000826001600160a01b03168260405160006040518083038185875af1925050503d8060008114611dc6576040519150601f19603f3d011682016040523d82523d6000602084013e611dcb565b606091505b5050905080611ded576040516312171d8360e31b815260040160405180910390fd5b505050565b600080546001600160a01b038381166001600160a01b0319831681178455604051919092169283917f8be0079c531659141344cd1fd0a4f28419497f9722a3daafe3b4186f6b6457e09190a35050565b600b810154600260015b82821015611e6d5760019190911b9080611e6581612c82565b915050611e4c565b60108401805460ff8316600160201b0264ffffffffff1990911663ffffffff8516171790556000805b8260ff168160ff161015611fb4576000611eb1826001612ca1565b60ff1685901c905060005b81811015611faa57611ecc612670565b84815260ff8085166020808401918252600f8c0180546001818101835560009283529290912085516007909202019081559151908201805460408601516001600160a01b03908116610100026001600160a81b0319909216939095169290921791909117905560608301516002820180549184166001600160a01b031992831617905560808401516003830180549190941691161790915560a0820151600482015560c0820151600582015560e08201516006909101805491151560ff199290921691909117905584611f9e81612a7f565b95505050600101611ebc565b5050600101611e96565b506000611fc0846124e6565b90506000611fcf6002866129ce565b905060005b8181101561215b57600083611fea8360026129a1565b81518110611ffa57611ffa612a08565b6020026020010151905060008483600261201491906129a1565b61201f9060016129f5565b8151811061202f5761202f612a08565b602002602001015190508882111561204857600061207d565b600b8a016120576001846129e2565b8154811061206757612067612a08565b6000918252602090912001546001600160a01b03165b8a600f01848154811061209257612092612a08565b906000526020600020906007020160010160016101000a8154816001600160a01b0302191690836001600160a01b03160217905550888111156120d657600061210b565b600b8a016120e56001836129e2565b815481106120f5576120f5612a08565b6000918252602090912001546001600160a01b03165b8a600f01848154811061212057612120612a08565b6000918252602090912060079091020160020180546001600160a01b0319166001600160a01b03929092169190911790555050600101611fd4565b5060005b8181101561227d57600088600f01828154811061217e5761217e612a08565b6000918252602090912060016007909202019081015490915061010090046001600160a01b03161580156121bd575060028101546001600160a01b0316155b156121c85750612275565b600181015461010090046001600160a01b031615806121f2575060028101546001600160a01b0316155b1561227357600181015460009061010090046001600160a01b03161561222a57600182015461010090046001600160a01b0316612239565b60028201546001600160a01b03165b6003830180546001600160a01b0319166001600160a01b03831617905560068301805460ff1916600117905590506122718a84612287565b505b505b60010161215f565b5050505050505050565b600082600f01828154811061229e5761229e612a08565b60009182526020909120600790910201600181810154601086015492935060ff90811692600160201b900416906122d6908390612ca1565b60ff160361237257600382018054601086018054600160281b6001600160a01b0393841602600160281b600160c81b0319909116179055905460018401546101009004821691161461233a57600182015461010090046001600160a01b0316612349565b60028201546001600160a01b03165b60119490940180546001600160a01b0319166001600160a01b0390951694909417909355505050565b601084015463ffffffff16600061238f60ff841683901c836129e2565b9050600061239d82876129e2565b905060006123ac6002836129ce565b6123b7866001612ca1565b6123c79060ff1686901c866129e2565b6123d191906129f5565b9050600088600f0182815481106123ea576123ea612a08565b906000526020600020906007020190506002836124079190612cba565b6000036124405760038701546001820180546001600160a01b0390921661010002610100600160a81b0319909216919091179055612467565b60038701546002820180546001600160a01b0319166001600160a01b039092169190911790555b600181015461010090046001600160a01b031615801590612494575060028101546001600160a01b031615155b156124db578854600182015460405160ff90911681528391907f662448211719755c132e4a579fcfc6484c7c2958661d90ae8ab6c56bb5d065cb9060200160405180910390a35b505050505050505050565b604080516001808252818301909252606091600091906020808301908036833701905050905060018160008151811061252157612521612a08565b602090810291909101015260015b838110156126695760006125448260026129a1565b6001600160401b0381111561255b5761255b612bad565b604051908082528060200260200182016040528015612584578160200160208202803683370190505b50905060006125948360026129a1565b61259f9060016129f5565b905060005b8381101561264f578481815181106125be576125be612a08565b6020026020010151838260026125d491906129a1565b815181106125e4576125e4612a08565b60200260200101818152505084818151811061260257612602612a08565b60200260200101518261261591906129e2565b836126218360026129a1565b61262c9060016129f5565b8151811061263c5761263c612a08565b60209081029190910101526001016125a4565b5081935060028361266091906129a1565b9250505061252f565b5092915050565b6040805161010081018252600080825260208201819052918101829052606081018290526080810182905260a0810182905260c0810182905260e081019190915290565b6000602082840312156126c657600080fd5b5035919050565b602080825282518282018190526000918401906040840190835b8181101561270e5783516001600160a01b03168352602093840193909201916001016126e7565b509095945050505050565b6000806040838503121561272c57600080fd5b50508035926020909101359150565b8051825260ff602082015116602083015260018060a01b03604082015116604083015260018060a01b036060820151166060830152608081015161278a60808401826001600160a01b03169052565b5060a081015160a083015260c081015160c083015260e0810151611ded60e084018215159052565b6101008101610994828461273b565b60006101008284031280156127d557600080fd5b509092915050565b6000806000606084860312156127f257600080fd5b505081359360208301359350604090920135919050565b6001600160a01b03811681146110a657600080fd5b60006020828403121561283057600080fd5b813561283b81612809565b9392505050565b600080600080610160858703121561285957600080fd5b843593506020850135925060408501359150610160850186101561287c57600080fd5b509194909350909160600190565b602080825282518282018190526000918401906040840190835b8181101561270e576128b783855161273b565b6020939093019261010092909201916001016128a4565b6001600160a01b0391909116815260200190565b634e487b7160e01b600052602160045260246000fd5b60e081016004891061291a57634e487b7160e01b600052602160045260246000fd5b9781526001600160a01b0396871660208201526040810195909552606085019390935260ff919091166080840152831660a083015290911660c09091015290565b6000806040838503121561296e57600080fd5b82359150602083013561298081612809565b809150509250929050565b634e487b7160e01b600052601160045260246000fd5b80820281158282048414176109945761099461298b565b634e487b7160e01b600052601260045260246000fd5b6000826129dd576129dd6129b8565b500490565b818103818111156109945761099461298b565b808201808211156109945761099461298b565b634e487b7160e01b600052603260045260246000fd5b63ffffffff811681146110a657600080fd5b600060208284031215612a4257600080fd5b813561283b81612a1e565b6001600160401b03811681146110a657600080fd5b600060208284031215612a7457600080fd5b813561283b81612a4d565b600060018201612a9157612a9161298b565b5060010190565b6000813561099481612a1e565b6000813561099481612a4d565b81358155600181016020830135612ac881612a1e565b63ffffffff811663ffffffff1983541617825550612b0f612aeb60408501612a98565b82805463ffffffff60201b191660209290921b63ffffffff60201b16919091179055565b612b48612b1e60608501612aa5565b828054600160401b600160801b03191660409290921b600160401b600160801b0316919091179055565b506080820135600282015560a0820135600382015560c0820135600482015560e090910135600590910155565b60006101a0820190508782528660208301528560408301528460608301528360808301526101008360a0840137979650505050505050565b634e487b7160e01b600052604160045260246000fd5b8051611c3581612809565b60006080828403128015612be157600080fd5b50604051600090608081016001600160401b0381118282101715612c1357634e487b7160e01b83526041600452602483fd5b604052835181526020840151612c2881612809565b6020820152612c3960408501612bc3565b604082015260609384015193810193909352509092915050565b6000825160005b81811015612c745760208186018101518583015201612c5a565b506000920191825250919050565b600060ff821660ff8103612c9857612c9861298b565b60010192915050565b60ff81811683821601908111156109945761099461298b565b600082612cc957612cc96129b8565b50069056fea2646970667358221220569d459306db7374e91f8da4fb1361810eab1010299c0a617e266f7d81b5746c64736f6c634300081c0033",
  "linkReferences": {},
  "deployedLinkReferences": {}
}