{
  "_format": "hh-sol-artifact-1",
  "contractName": "Maps",
  "sourceName": "contracts/Maps.sol",
  "abi": [
    {
      "inputs": [],
      "stateMutability": "nonpayable",
      "type": "constructor"
    },
    {
      "inputs": [],
      "name": "InvalidPosition",
      "type": "error"
    },
    {
      "inputs": [],
      "name": "MapNotFound",
      "type": "error"
    },
    {
      "inputs": [],
      "name": "NotGameContract",
      "type": "error"
    },
    {
      "inputs": [],
      "name": "NotMapEditor",
      "type": "error"
    },
    {
      "inputs": [
        {
          "internalType": "address",
          "name": "owner",
          "type": "address"
        }
      ],
      "name": "OwnableInvalidOwner",
      "type": "error"
    },
    {
      "inputs": [
        {
          "internalType": "address",
          "name": "account",
          "type": "address"
        }
      ],
      "name": "OwnableUnauthorizedAccount",
      "type": "error"
    },
    {
      "anonymous": false,
      "inputs": [
        {
          "indexed": true,
          "internalType": "address",
          "name": "editor",
          "type": "address"
        },
        {
          "indexed": false,
          "internalType": "bool",
          "name": "allowed",
          "type": "bool"
        }
      ],
      "name": "MapEditorSet",
      "type": "event"
    },
    {
      "anonymous": false,
      "inputs": [
        {
          "indexed": true,
          "internalType": "address",
          "name": "previousOwner",
          "type": "address"
        },
        {
          "indexed": true,
          "internalType": "address",
          "name": "newOwner",
          "type": "address"
        }
      ],
      "name": "OwnershipTransferred",
      "type": "event"
    },
    {
      "inputs": [],
      "name": "GRID_HEIGHT",
      "outputs": [
        {
          "internalType": "int16",
          "name": "",
          "type": "int16"
        }
      ],
      "stateMutability": "view",
      "type": "function"
    },
    {
      "inputs": [],
      "name": "GRID_WIDTH",
      "outputs": [
        {
          "internalType": "int16",
          "name": "",
          "type": "int16"
        }
      ],
      "stateMutability": "view",
      "type": "function"
    },
    {
      "inputs": [
        {
          "internalType": "uint256",
          "name": "_gameId",
          "type": "uint256"
        },
        {
          "internalType": "uint256",
          "name": "_mapId",
          "type": "uint256"
        }
      ],
      "name": "applyPresetMapToGame",
      "outputs": [],
      "stateMutability": "nonpayable",
      "type": "function"
    },
    {
      "inputs": [
        {
          "internalType": "uint256",
          "name": "_gameId",
          "type": "uint256"
        },
        {
          "internalType": "uint256",
          "name": "_mapId",
          "type": "uint256"
        }
      ],
      "name": "applyPresetScoringMapToGame",
      "outputs": [],
      "stateMutability": "nonpayable",
      "type": "function"
    },
    {
      "inputs": [
        {
          "internalType": "uint256",
          "name": "",
          "type": "uint256"
        },
        {
          "internalType": "int16",
          "name": "",
          "type": "int16"
        },
        {
          "internalType": "int16",
          "name": "",
          "type": "int16"
        }
      ],
      "name": "blockedTiles",
      "outputs": [
        {
          "internalType": "bool",
          "name": "",
          "type": "bool"
        }
      ],
      "stateMutability": "view",
      "type": "function"
    },
    {
      "inputs": [
        {
          "components": [
            {
              "internalType": "int16",
              "name": "row",
              "type": "int16"
            },
            {
              "internalType": "int16",
              "name": "col",
              "type": "int16"
            }
          ],
          "internalType": "struct Position[]",
          "name": "_blockedPositions",
          "type": "tuple[]"
        },
        {
          "components": [
            {
              "internalType": "int16",
              "name": "row",
              "type": "int16"
            },
            {
              "internalType": "int16",
              "name": "col",
              "type": "int16"
            },
            {
              "internalType": "uint8",
              "name": "points",
              "type": "uint8"
            },
            {
              "internalType": "bool",
              "name": "onlyOnce",
              "type": "bool"
            }
          ],
          "internalType": "struct ScoringPosition[]",
          "name": "_scoringPositions",
          "type": "tuple[]"
        }
      ],
      "name": "createPresetMap",
      "outputs": [],
      "stateMutability": "nonpayable",
      "type": "function"
    },
    {
      "inputs": [
        {
          "components": [
            {
              "internalType": "int16",
              "name": "row",
              "type": "int16"
            },
            {
              "internalType": "int16",
              "name": "col",
              "type": "int16"
            }
          ],
          "internalType": "struct Position[]",
          "name": "_blockedPositions",
          "type": "tuple[]"
        }
      ],
      "name": "createPresetMap",
      "outputs": [],
      "stateMutability": "nonpayable",
      "type": "function"
    },
    {
      "inputs": [
        {
          "components": [
            {
              "internalType": "int16",
              "name": "row",
              "type": "int16"
            },
            {
              "internalType": "int16",
              "name": "col",
              "type": "int16"
            },
            {
              "internalType": "uint8",
              "name": "points",
              "type": "uint8"
            },
            {
              "internalType": "bool",
              "name": "onlyOnce",
              "type": "bool"
            }
          ],
          "internalType": "struct ScoringPosition[]",
          "name": "_scoringPositions",
          "type": "tuple[]"
        }
      ],
      "name": "createPresetScoringMap",
      "outputs": [],
      "stateMutability": "nonpayable",
      "type": "function"
    },
    {
      "inputs": [],
      "name": "gameAddress",
      "outputs": [
        {
          "internalType": "address",
          "name": "",
          "type": "address"
        }
      ],
      "stateMutability": "view",
      "type": "function"
    },
    {
      "inputs": [],
      "name": "getAllPresetMapIds",
      "outputs": [
        {
          "internalType": "uint256[]",
          "name": "mapIds",
          "type": "uint256[]"
        }
      ],
      "stateMutability": "view",
      "type": "function"
    },
    {
      "inputs": [],
      "name": "getAllPresetMaps",
      "outputs": [
        {
          "internalType": "uint256[]",
          "name": "mapIds",
          "type": "uint256[]"
        },
        {
          "components": [
            {
              "internalType": "int16",
              "name": "row",
              "type": "int16"
            },
            {
              "internalType": "int16",
              "name": "col",
              "type": "int16"
            }
          ],
          "internalType": "struct Position[][]",
          "name": "blockedPositions",
          "type": "tuple[][]"
        },
        {
          "components": [
            {
              "internalType": "int16",
              "name": "row",
              "type": "int16"
            },
            {
              "internalType": "int16",
              "name": "col",
              "type": "int16"
            },
            {
              "internalType": "uint8",
              "name": "points",
              "type": "uint8"
            },
            {
              "internalType": "bool",
              "name": "onlyOnce",
              "type": "bool"
            }
          ],
          "internalType": "struct ScoringPosition[][]",
          "name": "scoringPositions",
          "type": "tuple[][]"
        }
      ],
      "stateMutability": "view",
      "type": "function"
    },
    {
      "inputs": [
        {
          "internalType": "uint256",
          "name": "_gameId",
          "type": "uint256"
        }
      ],
      "name": "getGameMapState",
      "outputs": [
        {
          "components": [
            {
              "internalType": "int16",
              "name": "row",
              "type": "int16"
            },
            {
              "internalType": "int16",
              "name": "col",
              "type": "int16"
            }
          ],
          "internalType": "struct Position[]",
          "name": "blockedPositions",
          "type": "tuple[]"
        },
        {
          "components": [
            {
              "internalType": "int16",
              "name": "row",
              "type": "int16"
            },
            {
              "internalType": "int16",
              "name": "col",
              "type": "int16"
            },
            {
              "internalType": "uint8",
              "name": "points",
              "type": "uint8"
            },
            {
              "internalType": "bool",
              "name": "onlyOnce",
              "type": "bool"
            }
          ],
          "internalType": "struct ScoringPosition[]",
          "name": "scoringPositions",
          "type": "tuple[]"
        }
      ],
      "stateMutability": "view",
      "type": "function"
    },
    {
      "inputs": [
        {
          "internalType": "uint256",
          "name": "_mapId",
          "type": "uint256"
        }
      ],
      "name": "getPresetMap",
      "outputs": [
        {
          "components": [
            {
              "internalType": "int16",
              "name": "row",
              "type": "int16"
            },
            {
              "internalType": "int16",
              "name": "col",
              "type": "int16"
            }
          ],
          "internalType": "struct Position[]",
          "name": "",
          "type": "tuple[]"
        }
      ],
      "stateMutability": "view",
      "type": "function"
    },
    {
      "inputs": [
        {
          "internalType": "uint256",
          "name": "_mapId",
          "type": "uint256"
        }
      ],
      "name": "getPresetScoringMap",
      "outputs": [
        {
          "components": [
            {
              "internalType": "int16",
              "name": "row",
              "type": "int16"
            },
            {
              "internalType": "int16",
              "name": "col",
              "type": "int16"
            },
            {
              "internalType": "uint8",
              "name": "points",
              "type": "uint8"
            },
            {
              "internalType": "bool",
              "name": "onlyOnce",
              "type": "bool"
            }
          ],
          "internalType": "struct ScoringPosition[]",
          "name": "",
          "type": "tuple[]"
        }
      ],
      "stateMutability": "view",
      "type": "function"
    },
    {
      "inputs": [
        {
          "internalType": "uint256",
          "name": "_gameId",
          "type": "uint256"
        },
        {
          "internalType": "int16",
          "name": "_row",
          "type": "int16"
        },
        {
          "internalType": "int16",
          "name": "_col",
          "type": "int16"
        }
      ],
      "name": "getScoreAndZeroOut",
      "outputs": [
        {
          "internalType": "uint8",
          "name": "",
          "type": "uint8"
        }
      ],
      "stateMutability": "nonpayable",
      "type": "function"
    },
    {
      "inputs": [
        {
          "internalType": "uint256",
          "name": "_gameId",
          "type": "uint256"
        },
        {
          "internalType": "int16",
          "name": "_row0",
          "type": "int16"
        },
        {
          "internalType": "int16",
          "name": "_col0",
          "type": "int16"
        },
        {
          "internalType": "int16",
          "name": "_row1",
          "type": "int16"
        },
        {
          "internalType": "int16",
          "name": "_col1",
          "type": "int16"
        }
      ],
      "name": "hasMaps",
      "outputs": [
        {
          "internalType": "bool",
          "name": "",
          "type": "bool"
        }
      ],
      "stateMutability": "view",
      "type": "function"
    },
    {
      "inputs": [
        {
          "internalType": "address",
          "name": "",
          "type": "address"
        }
      ],
      "name": "isMapEditor",
      "outputs": [
        {
          "internalType": "bool",
          "name": "",
          "type": "bool"
        }
      ],
      "stateMutability": "view",
      "type": "function"
    },
    {
      "inputs": [
        {
          "internalType": "uint256",
          "name": "_gameId",
          "type": "uint256"
        },
        {
          "internalType": "int16",
          "name": "_row",
          "type": "int16"
        },
        {
          "internalType": "int16",
          "name": "_col",
          "type": "int16"
        }
      ],
      "name": "isTileBlocked",
      "outputs": [
        {
          "internalType": "bool",
          "name": "",
          "type": "bool"
        }
      ],
      "stateMutability": "view",
      "type": "function"
    },
    {
      "inputs": [
        {
          "internalType": "uint256",
          "name": "_gameId",
          "type": "uint256"
        },
        {
          "internalType": "int16",
          "name": "_row",
          "type": "int16"
        },
        {
          "internalType": "int16",
          "name": "_col",
          "type": "int16"
        }
      ],
      "name": "isTileScoring",
      "outputs": [
        {
          "internalType": "uint8",
          "name": "",
          "type": "uint8"
        }
      ],
      "stateMutability": "view",
      "type": "function"
    },
    {
      "inputs": [
        {
          "internalType": "uint256",
          "name": "_gameId",
          "type": "uint256"
        },
        {
          "internalType": "int16",
          "name": "_row",
          "type": "int16"
        },
        {
          "internalType": "int16",
          "name": "_col",
          "type": "int16"
        }
      ],
      "name": "isTileScoringSafe",
      "outputs": [
        {
          "internalType": "uint8",
          "name": "",
          "type": "uint8"
        }
      ],
      "stateMutability": "view",
      "type": "function"
    },
    {
      "inputs": [],
      "name": "mapCount",
      "outputs": [
        {
          "internalType": "uint256",
          "name": "",
          "type": "uint256"
        }
      ],
      "stateMutability": "view",
      "type": "function"
    },
    {
      "inputs": [
        {
          "internalType": "uint256",
          "name": "_mapId",
          "type": "uint256"
        }
      ],
      "name": "mapExists",
      "outputs": [
        {
          "internalType": "bool",
          "name": "",
          "type": "bool"
        }
      ],
      "stateMutability": "view",
      "type": "function"
    },
    {
      "inputs": [
        {
          "internalType": "uint256",
          "name": "",
          "type": "uint256"
        },
        {
          "internalType": "int16",
          "name": "",
          "type": "int16"
        },
        {
          "internalType": "int16",
          "name": "",
          "type": "int16"
        }
      ],
      "name": "onlyOnceTiles",
      "outputs": [
        {
          "internalType": "bool",
          "name": "",
          "type": "bool"
        }
      ],
      "stateMutability": "view",
      "type": "function"
    },
    {
      "inputs": [],
      "name": "owner",
      "outputs": [
        {
          "internalType": "address",
          "name": "",
          "type": "address"
        }
      ],
      "stateMutability": "view",
      "type": "function"
    },
    {
      "inputs": [
        {
          "internalType": "uint256",
          "name": "",
          "type": "uint256"
        },
        {
          "internalType": "int16",
          "name": "",
          "type": "int16"
        },
        {
          "internalType": "int16",
          "name": "",
          "type": "int16"
        }
      ],
      "name": "presetBlockedMaps",
      "outputs": [
        {
          "internalType": "bool",
          "name": "",
          "type": "bool"
        }
      ],
      "stateMutability": "view",
      "type": "function"
    },
    {
      "inputs": [
        {
          "internalType": "uint256",
          "name": "",
          "type": "uint256"
        },
        {
          "internalType": "int16",
          "name": "",
          "type": "int16"
        },
        {
          "internalType": "int16",
          "name": "",
          "type": "int16"
        }
      ],
      "name": "presetOnlyOnceMaps",
      "outputs": [
        {
          "internalType": "bool",
          "name": "",
          "type": "bool"
        }
      ],
      "stateMutability": "view",
      "type": "function"
    },
    {
      "inputs": [
        {
          "internalType": "uint256",
          "name": "",
          "type": "uint256"
        },
        {
          "internalType": "int16",
          "name": "",
          "type": "int16"
        },
        {
          "internalType": "int16",
          "name": "",
          "type": "int16"
        }
      ],
      "name": "presetScoringMaps",
      "outputs": [
        {
          "internalType": "uint8",
          "name": "",
          "type": "uint8"
        }
      ],
      "stateMutability": "view",
      "type": "function"
    },
    {
      "inputs": [],
      "name": "renounceOwnership",
      "outputs": [],
      "stateMutability": "nonpayable",
      "type": "function"
    },
    {
      "inputs": [
        {
          "internalType": "uint256",
          "name": "",
          "type": "uint256"
        },
        {
          "internalType": "int16",
          "name": "",
          "type": "int16"
        },
        {
          "internalType": "int16",
          "name": "",
          "type": "int16"
        }
      ],
      "name": "scoringTiles",
      "outputs": [
        {
          "internalType": "uint8",
          "name": "",
          "type": "uint8"
        }
      ],
      "stateMutability": "view",
      "type": "function"
    },
    {
      "inputs": [
        {
          "internalType": "uint256",
          "name": "_gameId",
          "type": "uint256"
        },
        {
          "internalType": "int16",
          "name": "_row",
          "type": "int16"
        },
        {
          "internalType": "int16",
          "name": "_col",
          "type": "int16"
        },
        {
          "internalType": "bool",
          "name": "_blocked",
          "type": "bool"
        }
      ],
      "name": "setBlockedTile",
      "outputs": [],
      "stateMutability": "nonpayable",
      "type": "function"
    },
    {
      "inputs": [
        {
          "internalType": "address",
          "name": "_gameAddress",
          "type": "address"
        }
      ],
      "name": "setGameAddress",
      "outputs": [],
      "stateMutability": "nonpayable",
      "type": "function"
    },
    {
      "inputs": [
        {
          "internalType": "address",
          "name": "_editor",
          "type": "address"
        },
        {
          "internalType": "bool",
          "name": "_allowed",
          "type": "bool"
        }
      ],
      "name": "setMapEditor",
      "outputs": [],
      "stateMutability": "nonpayable",
      "type": "function"
    },
    {
      "inputs": [
        {
          "internalType": "uint256",
          "name": "_gameId",
          "type": "uint256"
        },
        {
          "internalType": "int16",
          "name": "_row",
          "type": "int16"
        },
        {
          "internalType": "int16",
          "name": "_col",
          "type": "int16"
        },
        {
          "internalType": "uint8",
          "name": "_points",
          "type": "uint8"
        }
      ],
      "name": "setScoringTile",
      "outputs": [],
      "stateMutability": "nonpayable",
      "type": "function"
    },
    {
      "inputs": [
        {
          "internalType": "address",
          "name": "newOwner",
          "type": "address"
        }
      ],
      "name": "transferOwnership",
      "outputs": [],
      "stateMutability": "nonpayable",
      "type": "function"
    },
    {
      "inputs": [
        {
          "internalType": "uint256",
          "name": "_mapId",
          "type": "uint256"
        },
        {
          "components": [
            {
              "internalType": "int16",
              "name": "row",
              "type": "int16"
            },
            {
              "internalType": "int16",
              "name": "col",
              "type": "int16"
            }
          ],
          "internalType": "struct Position[]",
          "name": "_blockedPositions",
          "type": "tuple[]"
        }
      ],
      "name": "updatePresetMap",
      "outputs": [],
      "stateMutability": "nonpayable",
      "type": "function"
    },
    {
      "inputs": [
        {
          "internalType": "uint256",
          "name": "_mapId",
          "type": "uint256"
        },
        {
          "components": [
            {
              "internalType": "int16",
              "name": "row",
              "type": "int16"
            },
            {
              "internalType": "int16",
              "name": "col",
              "type": "int16"
            }
          ],
          "internalType": "struct Position[]",
          "name": "_blockedPositions",
          "type": "tuple[]"
        },
        {
          "components": [
            {
              "internalType": "int16",
              "name": "row",
              "type": "int16"
            },
            {
              "internalType": "int16",
              "name": "col",
              "type": "int16"
            },
            {
              "internalType": "uint8",
              "name": "points",
              "type": "uint8"
            },
            {
              "internalType": "bool",
              "name": "onlyOnce",
              "type": "bool"
            }
          ],
          "internalType": "struct ScoringPosition[]",
          "name": "_scoringPositions",
          "type": "tuple[]"
        }
      ],
      "name": "updatePresetMap",
      "outputs": [],
      "stateMutability": "nonpayable",
      "type": "function"
    },
    {
      "inputs": [
        {
          "internalType": "uint256",
          "name": "_mapId",
          "type": "uint256"
        },
        {
          "components": [
            {
              "internalType": "int16",
              "name": "row",
              "type": "int16"
            },
            {
              "internalType": "int16",
              "name": "col",
              "type": "int16"
            },
            {
              "internalType": "uint8",
              "name": "points",
              "type": "uint8"
            },
            {
              "internalType": "bool",
              "name": "onlyOnce",
              "type": "bool"
            }
          ],
          "internalType": "struct ScoringPosition[]",
          "name": "_scoringPositions",
          "type": "tuple[]"
        }
      ],
      "name": "updatePresetScoringMap",
      "outputs": [],
      "stateMutability": "nonpayable",
      "type": "function"
    }
  ],
  "bytecode": "0x6080604052348015600f57600080fd5b503380603557604051631e4fbdf760e01b81526000600482015260240160405180910390fd5b603c816041565b506091565b600080546001600160a01b038381166001600160a01b0319831681178455604051919092169283917f8be0079c531659141344cd1fd0a4f28419497f9722a3daafe3b4186f6b6457e09190a35050565b613388806100a06000396000f3fe608060405234801561001057600080fd5b50600436106101b75760003560e01c8063046e8d0b146101bc5780630a312b8814610205578063235e78eb14610239578063349370d0146102545780633bf0684b146102795780633fa0bb061461028e57806341779f5b146102a15780634bf11ad2146102b657806357406856146102be5780635a1114e3146102d157806363228ab7146102e45780636858bd4014610318578063709faade1461032b578063711953ef1461033e578063715018a6146103515780638383c9951461035957806386e8a1a01461036c5780638da5cb5b1461037f5780639512b3291461039457806396c95ece146103a7578063a168d873146103be578063a2ec85bc146103d1578063c95eeaad146103e4578063c996553714610418578063ccc0e3521461044c578063ce4693f81461045f578063d0bc9bbb1461047f578063d4a4affa146104a0578063dc32d63b146104b3578063dd91835e146104c6578063edc6e555146104d9578063f2fde38b146104ec578063f342d002146104ff578063f5ea3dc914610533578063fae435b41461054a578063fd4755661461056a578063fd844b6e1461058d575b600080fd5b6101f06101ca3660046129f8565b600160209081526000938452604080852082529284528284209052825290205460ff1681565b60405190151581526020015b60405180910390f35b6101f06102133660046129f8565b600560209081526000938452604080852082529284528284209052825290205460ff1681565b610241601181565b60405160019190910b81526020016101fc565b6102676102623660046129f8565b6105a0565b60405160ff90911681526020016101fc565b61028c610287366004612a34565b610631565b005b61028c61029c366004612cf8565b61080e565b6102a9610873565b6040516101fc9190612d9b565b610241600b81565b61028c6102cc366004612dae565b610906565b6101f06102df366004612e1c565b610b48565b6102676102f23660046129f8565b600360209081526000938452604080852082529284528284209052825290205460ff1681565b6101f06103263660046129f8565b610b61565b61028c610339366004612e35565b610be2565b61028c61034c366004612e99565b610cc8565b61028c610cf2565b6101f0610367366004612eb4565b610d06565b61028c61037a366004612f12565b610df9565b610387610f75565b6040516101fc9190612f34565b61028c6103a2366004612f48565b610f84565b6103af610feb565b6040516101fc9392919061301b565b600854610387906001600160a01b031681565b6102676103df3660046129f8565b611184565b6101f06103f23660046129f8565b600660209081526000938452604080852082529284528284209052825290205460ff1681565b6101f06104263660046129f8565b600260209081526000938452604080852082529284528284209052825290205460ff1681565b61028c61045a3660046130ee565b6111f5565b61047261046d366004612e1c565b61128a565b6040516101fc919061312a565b61049261048d366004612e1c565b611436565b6040516101fc92919061313d565b61028c6104ae366004612f12565b611744565b6102676104c13660046129f8565b611930565b61028c6104d4366004613162565b611984565b61028c6104e7366004613196565b611a18565b61028c6104fa366004612e99565b611afb565b61026761050d3660046129f8565b600460209081526000938452604080852082529284528284209052825290205460ff1681565b61053c60075481565b6040519081526020016101fc565b61055d610558366004612e1c565b611b3f565b6040516101fc91906131d8565b6101f0610578366004612e99565b60096020526000908152604090205460ff1681565b61028c61059b3660046131eb565b611d34565b6000838152600360209081526040808320600186810b8086529184528285209086900b808652908452828520548886526005855283862092865291845282852090855290925282205460ff918216911615610627576000858152600360209081526040808320600188810b85529083528184209087900b84529091529020805460ff191690555b90505b9392505050565b610639610f75565b6001600160a01b0316336001600160a01b03161415801561066a57503360009081526009602052604090205460ff16155b15610688576040516328434a0360e11b815260040160405180910390fd5b821580610696575060075483115b156106b457604051639ff5bfb960e01b815260040160405180910390fd5b60006106bf846120b8565b905060005b815181101561072d5760008282815181106106e1576106e161325b565b60209081029190910181015160008881526002835260408082208351600190810b845290855281832093850151810b83529290935291909120805460ff191690559190910190506106c4565b5060005b8281101561080757600084848381811061074d5761074d61325b565b9050604002018036038101906107639190613271565b90506000816000015160010b128061078357508051600b60019190910b12155b8061079557506000816020015160010b125b806107ab5750601160010b816020015160010b12155b156107c95760405163673f032f60e11b815260040160405180910390fd5b60008681526002602090815260408083208451600190810b855290835281842094830151810b8452939091529020805460ff19168217905501610731565b5050505050565b610816610f75565b6001600160a01b0316336001600160a01b03161415801561084757503360009081526009602052604090205460ff16155b15610865576040516328434a0360e11b815260040160405180910390fd5b61086f828261225a565b5050565b600754606090806001600160401b0381111561089157610891612ab3565b6040519080825280602002602001820160405280156108ba578160200160208202803683370190505b50915060015b8181116109015780836108d46001836132a3565b815181106108e4576108e461325b565b6020908102919091010152806108f9816132b6565b9150506108c0565b505090565b61090e610f75565b6001600160a01b0316336001600160a01b03161415801561093f57503360009081526009602052604090205460ff16155b1561095d576040516328434a0360e11b815260040160405180910390fd5b82158061096b575060075483115b1561098957604051639ff5bfb960e01b815260040160405180910390fd5b600061099484612457565b905060005b8151811015610a2c5760008282815181106109b6576109b661325b565b60209081029190910181015160008881526004835260408082208351600190810b84529085528183208486018051830b8552908652828420805460ff199081169091558c8552600687528385209551830b85529486528284209051820b8452909452902080549091169055919091019050610999565b5060005b82811015610807576000848483818110610a4c57610a4c61325b565b905060800201803603810190610a6291906132cf565b90506000816000015160010b1280610a8257508051600b60019190910b12155b80610a9457506000816020015160010b125b80610aaa5750601160010b816020015160010b12155b15610ac85760405163673f032f60e11b815260040160405180910390fd5b6040808201516000888152600460209081528382208551600190810b84529082528483208287018051830b8552908352858420805460ff90961660ff1996871617905560608701518c8552600684528685209751830b85529683528584209051820b84529091529290208054931515939091169290921790915501610a30565b60008082118015610b5b57506007548211155b92915050565b6000808360010b1280610b795750600b600184900b12155b80610b87575060008260010b125b80610b9757506011600183900b12155b15610bb55760405163673f032f60e11b815260040160405180910390fd5b50600092835260016020818152604080862094830b86529381528385209290910b84525290205460ff1690565b610bea610f75565b6001600160a01b0316336001600160a01b031614158015610c1b57503360009081526009602052604090205460ff16155b15610c39576040516328434a0360e11b815260040160405180910390fd5b60008360010b1280610c505750600b600184900b12155b80610c5e575060008260010b125b80610c6e57506011600183900b12155b15610c8c5760405163673f032f60e11b815260040160405180910390fd5b6000938452600360209081526040808620600195860b875282528086209390940b8552919091529120805460ff191660ff909216919091179055565b610cd061264c565b600880546001600160a01b0319166001600160a01b0392909216919091179055565b610cfa61264c565b610d04600061267e565b565b6000808560010b1280610d1e5750600b600186900b12155b80610d2c575060008460010b125b80610d3c57506011600185900b12155b80610d4a575060008360010b125b80610d5a5750600b600184900b12155b80610d68575060008260010b125b80610d7857506011600183900b12155b15610d965760405163673f032f60e11b815260040160405180910390fd5b610da18686866126ce565b15610dae57506000610df0565b8260010b8560010b148015610dc857508160010b8460010b145b15610de057610dd88684846126ce565b159050610df0565b610ded8686868686612711565b90505b95945050505050565b6008546001600160a01b03163314801590610e2d5750610e17610f75565b6001600160a01b0316336001600160a01b031614155b15610e4b57604051636aff438160e11b815260040160405180910390fd5b801580610e59575060075481115b15610e7757604051639ff5bfb960e01b815260040160405180910390fd5b6000610e8282612457565b905060005b8151811015610f6f576000828281518110610ea457610ea461325b565b60209081029190910181015160008681526004835260408082208351600190810b84529085528183208486018051830b8552908652828420548b8552600387528385208651840b865287528385208251840b86528752838520805460ff1990811660ff938416179091558b8652600688528486208751850b875288528486208351850b87528852848620548d8752600589528587209751850b87529688528486209251840b865291909652919092208054939094161515921691909117909155919091019050610e87565b50505050565b6000546001600160a01b031690565b610f8c61264c565b6001600160a01b038216600081815260096020908152604091829020805460ff191685151590811790915591519182527f1ffd8069500fb1c8f19ffa12163296025759c850df1277103ca07a6f298c231c910160405180910390a25050565b606080606060006007549050806001600160401b0381111561100f5761100f612ab3565b604051908082528060200260200182016040528015611038578160200160208202803683370190505b509350806001600160401b0381111561105357611053612ab3565b60405190808252806020026020018201604052801561108657816020015b60608152602001906001900390816110715790505b509250806001600160401b038111156110a1576110a1612ab3565b6040519080825280602002602001820160405280156110d457816020015b60608152602001906001900390816110bf5790505b50915060015b81811161117d5780856110ee6001836132a3565b815181106110fe576110fe61325b565b602002602001018181525050611113816120b8565b8461111f6001846132a3565b8151811061112f5761112f61325b565b602002602001018190525061114381612457565b8361114f6001846132a3565b8151811061115f5761115f61325b565b60200260200101819052508080611175906132b6565b9150506110da565b5050909192565b6000808360010b128061119c5750600b600184900b12155b806111aa575060008260010b125b806111ba57506011600183900b12155b156111c75750600061062a565b506000928352600360209081526040808520600194850b865282528085209290930b84525290205460ff1690565b6111fd610f75565b6001600160a01b0316336001600160a01b03161415801561122e57503360009081526009602052604090205460ff16155b1561124c576040516328434a0360e11b815260040160405180910390fd5b6040805160008082526020820190925261128791611280565b61126d6129a3565b8152602001906001900390816112655790505b508261225a565b50565b606081158061129a575060075482115b156112b857604051639ff5bfb960e01b815260040160405180910390fd5b6000805b600b600182900b121561132a5760005b6011600182900b1215611321576000858152600260209081526040808320600186810b85529083528184209085900b845290915290205460ff16156113195782611315816132b6565b9350505b6001016112cc565b506001016112bc565b506000816001600160401b0381111561134557611345612ab3565b60405190808252806020026020018201604052801561137e57816020015b61136b6129a3565b8152602001906001900390816113635790505b5090506000805b600b600182900b121561142c5760005b6011600182900b1215611423576000878152600260209081526040808320600186810b85529083528184209085900b845290915290205460ff161561141b5760405180604001604052808360010b81526020018260010b8152508484815181106114015761140161325b565b60200260200101819052508280611417906132b6565b9350505b600101611395565b50600101611385565b5090949350505050565b6060806000805b600b600182900b12156114a85760005b6011600182900b121561149f57600086815260016020818152604080842086840b855282528084209285900b845291905290205460ff16156114975782611493816132b6565b9350505b60010161144d565b5060010161143d565b506000805b600b600182900b121561151b5760005b6011600182900b1215611512576000878152600360209081526040808320600186810b85529083528184209085900b845290915290205460ff161561150a5782611506816132b6565b9350505b6001016114bd565b506001016114ad565b50816001600160401b0381111561153457611534612ab3565b60405190808252806020026020018201604052801561156d57816020015b61155a6129a3565b8152602001906001900390816115525790505b509350806001600160401b0381111561158857611588612ab3565b6040519080825280602002602001820160405280156115c157816020015b6115ae6129ba565b8152602001906001900390816115a65790505b50925060008060005b600b600182900b121561173a5760005b6011600182900b121561173157600089815260016020818152604080842086840b855282528084209285900b845291905290205460ff161561165d5760405180604001604052808360010b81526020018260010b8152508885815181106116435761164361325b565b60200260200101819052508380611659906132b6565b9450505b6000898152600360209081526040808320600186810b85529083528184209085900b845290915290205460ff16156117295760408051608081018252600184810b8083529084900b602080840182905260008e815260038252858120848252825285812083825282528581205460ff908116868801528f825260058352868220948252938252858120928152919052929092205490911615156060820152875188908590811061170f5761170f61325b565b60200260200101819052508280611725906132b6565b9350505b6001016115da565b506001016115ca565b5050505050915091565b6008546001600160a01b031633148015906117785750611762610f75565b6001600160a01b0316336001600160a01b031614155b1561179657604051636aff438160e11b815260040160405180910390fd5b8015806117a4575060075481115b156117c257604051639ff5bfb960e01b815260040160405180910390fd5b60006117cd826120b8565b905060005b81518110156118375760008282815181106117ef576117ef61325b565b6020908102919091018101516000878152600180845260408083208451830b8452855280832093850151820b83529290935220805460ff1916821790559190910190506117d2565b50600061184383612457565b905060005b81518110156108075760008282815181106118655761186561325b565b60209081029190910181015160008781526004835260408082208351600190810b84529085528183208486018051830b8552908652828420548c8552600387528385208651840b865287528385208251840b86528752838520805460ff1990811660ff938416179091558c8652600688528486208751850b875288528486208351850b87528852848620548e8752600589528587209751850b87529688528486209251840b865291909652919092208054939094161515921691909117909155919091019050611848565b6000808360010b12806119485750600b600184900b12155b80611956575060008260010b125b8061196657506011600183900b12155b156111c75760405163673f032f60e11b815260040160405180910390fd5b61198c610f75565b6001600160a01b0316336001600160a01b0316141580156119bd57503360009081526009602052604090205460ff16155b156119db576040516328434a0360e11b815260040160405180910390fd5b6040805160008082526020820190925261128791839190611a12565b6119ff6129ba565b8152602001906001900390816119f75790505b5061225a565b611a20610f75565b6001600160a01b0316336001600160a01b031614158015611a5157503360009081526009602052604090205460ff16155b15611a6f576040516328434a0360e11b815260040160405180910390fd5b60008360010b1280611a865750600b600184900b12155b80611a94575060008260010b125b80611aa457506011600183900b12155b15611ac25760405163673f032f60e11b815260040160405180910390fd5b600093845260016020818152604080872095830b87529481528486209390910b8552919091529120805460ff1916911515919091179055565b611b0361264c565b6001600160a01b038116611b36576000604051631e4fbdf760e01b8152600401611b2d9190612f34565b60405180910390fd5b6112878161267e565b6060811580611b4f575060075482115b15611b6d57604051639ff5bfb960e01b815260040160405180910390fd5b6000805b600b600182900b1215611bdf5760005b6011600182900b1215611bd6576000858152600460209081526040808320600186810b85529083528184209085900b845290915290205460ff1615611bce5782611bca816132b6565b9350505b600101611b81565b50600101611b71565b506000816001600160401b03811115611bfa57611bfa612ab3565b604051908082528060200260200182016040528015611c3357816020015b611c206129ba565b815260200190600190039081611c185790505b5090506000805b600b600182900b121561142c5760005b6011600182900b1215611d2b576000878152600460209081526040808320600186810b85529083528184209085900b845290915290205460ff1615611d235760408051608081018252600184810b8083529084900b602080840182905260008c815260048252858120848252825285812083825282528581205460ff908116868801528d8252600683528682209482529382528581209281529190529290922054909116151560608201528451859085908110611d0957611d0961325b565b60200260200101819052508280611d1f906132b6565b9350505b600101611c4a565b50600101611c3a565b611d3c610f75565b6001600160a01b0316336001600160a01b031614158015611d6d57503360009081526009602052604090205460ff16155b15611d8b576040516328434a0360e11b815260040160405180910390fd5b821580611d99575060075483115b15611db757604051639ff5bfb960e01b815260040160405180910390fd5b6000611dc2846120b8565b905060005b8151811015611e30576000828281518110611de457611de461325b565b60209081029190910181015160008881526002835260408082208351600190810b845290855281832093850151810b83529290935291909120805460ff19169055919091019050611dc7565b506000611e3c85612457565b905060005b8151811015611ed4576000828281518110611e5e57611e5e61325b565b60209081029190910181015160008981526004835260408082208351600190810b84529085528183208486018051830b8552908652828420805460ff199081169091558d8552600687528385209551830b85529486528284209051820b8452909452902080549091169055919091019050611e41565b5060005b8451811015611fa1576000858281518110611ef557611ef561325b565b602002602001015190506000816000015160010b1280611f1d57508051600b60019190910b12155b80611f2f57506000816020015160010b125b80611f455750601160010b816020015160010b12155b15611f635760405163673f032f60e11b815260040160405180910390fd5b60008781526002602090815260408083208451600190810b855290835281842094830151810b8452939091529020805460ff19168217905501611ed8565b5060005b83518110156120b0576000848281518110611fc257611fc261325b565b602002602001015190506000816000015160010b1280611fea57508051600b60019190910b12155b80611ffc57506000816020015160010b125b806120125750601160010b816020015160010b12155b156120305760405163673f032f60e11b815260040160405180910390fd5b6040808201516000898152600460209081528382208551600190810b84529082528483208287018051830b8552908352858420805460ff90961660ff1996871617905560608701518d8552600684528685209751830b85529683528584209051820b84529091529290208054931515939091169290921790915501611fa5565b505050505050565b60608115806120c8575060075482115b156120e657604051639ff5bfb960e01b815260040160405180910390fd5b6000805b600b600182900b12156121585760005b6011600182900b121561214f576000858152600260209081526040808320600186810b85529083528184209085900b845290915290205460ff16156121475782612143816132b6565b9350505b6001016120fa565b506001016120ea565b506000816001600160401b0381111561217357612173612ab3565b6040519080825280602002602001820160405280156121ac57816020015b6121996129a3565b8152602001906001900390816121915790505b5090506000805b600b600182900b121561142c5760005b6011600182900b1215612251576000878152600260209081526040808320600186810b85529083528184209085900b845290915290205460ff16156122495760405180604001604052808360010b81526020018260010b81525084848151811061222f5761222f61325b565b60200260200101819052508280612245906132b6565b9350505b6001016121c3565b506001016121b3565b6007805490600061226a836132b6565b919050555060005b825181101561233e57600083828151811061228f5761228f61325b565b602002602001015190506000816000015160010b12806122b757508051600b60019190910b12155b806122c957506000816020015160010b125b806122df5750601160010b816020015160010b12155b156122fd5760405163673f032f60e11b815260040160405180910390fd5b60075460009081526002602090815260408083208451600190810b855290835281842094830151810b8452939091529020805460ff19168217905501612272565b5060005b815181101561245257600082828151811061235f5761235f61325b565b602002602001015190506000816000015160010b128061238757508051600b60019190910b12155b8061239957506000816020015160010b125b806123af5750601160010b816020015160010b12155b156123cd5760405163673f032f60e11b815260040160405180910390fd5b604080820151600780546000908152600460209081528482208651600190810b84529082528583208288018051830b8552908352868420805460ff90971660ff19978816179055606088015194548452600683528684209751820b84529682528583209651810b83529590529290922080549215159290911691909117905501612342565b505050565b6060811580612467575060075482115b1561248557604051639ff5bfb960e01b815260040160405180910390fd5b6000805b600b600182900b12156124f75760005b6011600182900b12156124ee576000858152600460209081526040808320600186810b85529083528184209085900b845290915290205460ff16156124e657826124e2816132b6565b9350505b600101612499565b50600101612489565b506000816001600160401b0381111561251257612512612ab3565b60405190808252806020026020018201604052801561254b57816020015b6125386129ba565b8152602001906001900390816125305790505b5090506000805b600b600182900b121561142c5760005b6011600182900b1215612643576000878152600460209081526040808320600186810b85529083528184209085900b845290915290205460ff161561263b5760408051608081018252600184810b8083529084900b602080840182905260008c815260048252858120848252825285812083825282528581205460ff908116868801528d82526006835286822094825293825285812092815291905292909220549091161515606082015284518590859081106126215761262161325b565b60200260200101819052508280612637906132b6565b9350505b600101612562565b50600101612552565b33612655610f75565b6001600160a01b031614610d04573360405163118cdaa760e01b8152600401611b2d9190612f34565b600080546001600160a01b038381166001600160a01b0319831681178455604051919092169283917f8be0079c531659141344cd1fd0a4f28419497f9722a3daafe3b4186f6b6457e09190a35050565b6000808360010b12806126e65750600b600184900b12155b806126f4575060008260010b125b8061270457506011600183900b12155b15610bb55750600161062a565b6000808560010b8460010b136127305761272b84876132eb565b61273a565b61273a86856132eb565b905060008560010b8460010b1361275a5761275584876132eb565b612764565b61276486856132eb565b905060008760010b8660010b13612791578760010b8660010b12612789576000612794565b600019612794565b60015b905060008760010b8660010b136127c1578760010b8660010b126127b95760006127c4565b6000196127c4565b60015b905060006127d285856132eb565b905089895b8960010b8260010b1480156127f157508860010b8160010b145b15612810576128018d83836126ce565b15975050505050505050610df0565b600183810b811b9081900b6000036128e0576128368e84612831888661330e565b6126ce565b801561285157506128518e61284b888661330e565b846126ce565b1561286757600098505050505050505050610df0565b612871858361330e565b915061287d88856132eb565b9350612889868461330e565b9250612895878561330e565b93508a60010b8360010b1415806128b257508960010b8260010b14155b80156128c457506128c48e84846126ce565b156128da57600098505050505050505050610df0565b506127d7565b6128e988613331565b60010b8160010b13156129515761290088856132eb565b935061290c858361330e565b91508a60010b8360010b14158061292957508960010b8260010b14155b801561293b575061293b8e84846126ce565b1561295157600098505050505050505050610df0565b8660010b8160010b12156128da57612969878561330e565b9350612975868461330e565b92508a60010b8360010b1415806128b257508960010b8260010b141580156128c457506128c48e84846126ce565b604080518082019091526000808252602082015290565b60408051608081018252600080825260208201819052918101829052606081019190915290565b8035600181900b81146129f357600080fd5b919050565b600080600060608486031215612a0d57600080fd5b83359250612a1d602085016129e1565b9150612a2b604085016129e1565b90509250925092565b600080600060408486031215612a4957600080fd5b8335925060208401356001600160401b03811115612a6657600080fd5b8401601f81018613612a7757600080fd5b80356001600160401b03811115612a8d57600080fd5b8660208260061b8401011115612aa257600080fd5b939660209190910195509293505050565b634e487b7160e01b600052604160045260246000fd5b604051601f8201601f191681016001600160401b0381118282101715612af157612af1612ab3565b604052919050565b60006001600160401b03821115612b1257612b12612ab3565b5060051b60200190565b600060408284031215612b2e57600080fd5b604080519081016001600160401b0381118282101715612b5057612b50612ab3565b604052905080612b5f836129e1565b8152612b6d602084016129e1565b60208201525092915050565b600082601f830112612b8a57600080fd5b8135612b9d612b9882612af9565b612ac9565b8082825260208201915060208360061b860101925085831115612bbf57600080fd5b602085015b83811015612be657612bd68782612b1c565b8352602090920191604001612bc4565b5095945050505050565b803560ff811681146129f357600080fd5b803580151581146129f357600080fd5b600060808284031215612c2357600080fd5b604051608081016001600160401b0381118282101715612c4557612c45612ab3565b604052905080612c54836129e1565b8152612c62602084016129e1565b6020820152612c7360408401612bf0565b6040820152612c8460608401612c01565b60608201525092915050565b600082601f830112612ca157600080fd5b8135612caf612b9882612af9565b8082825260208201915060208360071b860101925085831115612cd157600080fd5b602085015b83811015612be657612ce88782612c11565b8352602090920191608001612cd6565b60008060408385031215612d0b57600080fd5b82356001600160401b03811115612d2157600080fd5b612d2d85828601612b79565b92505060208301356001600160401b03811115612d4957600080fd5b612d5585828601612c90565b9150509250929050565b600081518084526020840193506020830160005b82811015612d91578151865260209586019590910190600101612d73565b5093949350505050565b60208152600061062a6020830184612d5f565b600080600060408486031215612dc357600080fd5b8335925060208401356001600160401b03811115612de057600080fd5b8401601f81018613612df157600080fd5b80356001600160401b03811115612e0757600080fd5b8660208260071b8401011115612aa257600080fd5b600060208284031215612e2e57600080fd5b5035919050565b60008060008060808587031215612e4b57600080fd5b84359350612e5b602086016129e1565b9250612e69604086016129e1565b9150612e7760608601612bf0565b905092959194509250565b80356001600160a01b03811681146129f357600080fd5b600060208284031215612eab57600080fd5b61062a82612e82565b600080600080600060a08688031215612ecc57600080fd5b85359450612edc602087016129e1565b9350612eea604087016129e1565b9250612ef8606087016129e1565b9150612f06608087016129e1565b90509295509295909350565b60008060408385031215612f2557600080fd5b50508035926020909101359150565b6001600160a01b0391909116815260200190565b60008060408385031215612f5b57600080fd5b612f6483612e82565b9150612f7260208401612c01565b90509250929050565b600081518084526020840193506020830160005b82811015612d915781518051600190810b8852602091820151810b8289015260409097019692019101612f8f565b600081518084526020840193506020830160005b82811015612d915781518051600190810b8852602080830151820b818a015260408084015160ff16908a015260609283015115159289019290925260809097019692019101612fd1565b60608152600061302e6060830186612d5f565b828103602084015280855180835260208301915060208160051b8401016020880160005b8381101561308457601f1986840301855261306e838351612f7b565b6020958601959093509190910190600101613052565b50508581036040870152865180825260208083019550909350600584901b820181019250870160005b848110156130df57601f198385030186526130c9848351612fbd565b60209687019690945091909101906001016130ad565b50919998505050505050505050565b60006020828403121561310057600080fd5b81356001600160401b0381111561311657600080fd5b61312284828501612c90565b949350505050565b60208152600061062a6020830184612f7b565b6040815260006131506040830185612f7b565b8281036020840152610df08185612fbd565b60006020828403121561317457600080fd5b81356001600160401b0381111561318a57600080fd5b61312284828501612b79565b600080600080608085870312156131ac57600080fd5b843593506131bc602086016129e1565b92506131ca604086016129e1565b9150612e7760608601612c01565b60208152600061062a6020830184612fbd565b60008060006060848603121561320057600080fd5b8335925060208401356001600160401b0381111561321d57600080fd5b61322986828701612b79565b92505060408401356001600160401b0381111561324557600080fd5b61325186828701612c90565b9150509250925092565b634e487b7160e01b600052603260045260246000fd5b60006040828403121561328357600080fd5b61062a8383612b1c565b634e487b7160e01b600052601160045260246000fd5b81810381811115610b5b57610b5b61328d565b6000600182016132c8576132c861328d565b5060010190565b6000608082840312156132e157600080fd5b61062a8383612c11565b600182810b9082900b03617fff198112617fff82131715610b5b57610b5b61328d565b600181810b9083900b01617fff8113617fff1982121715610b5b57610b5b61328d565b60008160010b617fff1981036133495761334961328d565b6000039291505056fea2646970667358221220904cc923ca9403e429595d6908e7d667a1ff2c948902fb19b3609df6f7bddd2964736f6c634300081c0033",
  "linkReferences": {},
  "deployedLinkReferences": {}
}