{
  "_format": "hh-sol-artifact-1",
  "contractName": "MockWorldID",
  "sourceName": "contracts/mocks/MockWorldID.sol",
  "abi": [
    {
      "inputs": [
        {
          "internalType": "bool",
          "name": "_v",
          "type": "bool"
        }
      ],
      "name": "setShouldRevert",
      "outputs": [],
      "stateMutability": "nonpayable",
      "type": "function"
    },
    {
      "inputs": [],
      "name": "shouldRevert",
      "outputs": [
        {
          "internalType": "bool",
          "name": "",
          "type": "bool"
        }
      ],
      "stateMutability": "view",
      "type": "function"
    },
    {
      "inputs": [
        {
          "internalType": "uint256",
          "name": "",
          "type": "uint256"
        },
        {
          "internalType": "uint256",
          "name": "",
          "type": "uint256"
        },
        {
          "internalType": "uint256",
          "name": "",
          "type": "uint256"
        },
        {
          "internalType": "uint256",
          "name": "",
          "type": "uint256"
        },
        {
          "internalType": "uint256",
          "name": "",
          "type": "uint256"
        },
        {
          "internalType": "uint256[8]",
          "name": "",
          "type": "uint256[8]"
        }
      ],
      "name": "verifyProof",
      "outputs": [],
      "stateMutability": "view",
      "type": "function"
    }
  ],
  "bytecode": "0x6080604052348015600f57600080fd5b506101b38061001f6000396000f3fe608060405234801561001057600080fd5b50600436106100415760003560e01c80633bc778e3146100465780636813d7871461005b578063d3072d821461007c575b600080fd5b6100596100543660046100f9565b61009d565b005b610059610069366004610154565b6000805460ff1916911515919091179055565b6000546100899060ff1681565b604051901515815260200160405180910390f35b60005460ff16156100f15760405162461bcd60e51b815260206004820152601a60248201527926b7b1b5abb7b9363224a21d1034b73b30b634b210383937b7b360311b604482015260640160405180910390fd5b505050505050565b6000806000806000806101a0878903121561011357600080fd5b86359550602087013594506040870135935060608701359250608087013591506101a0870188101561014457600080fd5b60a0870190509295509295509295565b60006020828403121561016657600080fd5b8135801515811461017657600080fd5b939250505056fea26469706673582212206074cdcf371664b34d0e2d8667177bfb88077c9d172c3660caaba795af8e51d064736f6c634300081c0033",
  "linkReferences": {},
  "deployedLinkReferences": {}
}