{
  "_format": "hh-sol-artifact-1",
  "contractName": "GameBlobRegistry",
  "sourceName": "contracts/GameBlobRegistry.sol",
  "abi": [
    {
      "inputs": [
        {
          "internalType": "address",
          "name": "_gameResults",
          "type": "address"
        },
        {
          "internalType": "address",
          "name": "_authorizedWriter",
          "type": "address"
        }
      ],
      "stateMutability": "nonpayable",
      "type": "constructor"
    },
    {
      "inputs": [],
      "name": "GameNotComplete",
      "type": "error"
    },
    {
      "inputs": [],
      "name": "NotParticipant",
      "type": "error"
    },
    {
      "inputs": [
        {
          "internalType": "address",
          "name": "owner",
          "type": "address"
        }
      ],
      "name": "OwnableInvalidOwner",
      "type": "error"
    },
    {
      "inputs": [
        {
          "internalType": "address",
          "name": "account",
          "type": "address"
        }
      ],
      "name": "OwnableUnauthorizedAccount",
      "type": "error"
    },
    {
      "inputs": [],
      "name": "Unauthorized",
      "type": "error"
    },
    {
      "anonymous": false,
      "inputs": [
        {
          "indexed": true,
          "internalType": "address",
          "name": "previous",
          "type": "address"
        },
        {
          "indexed": true,
          "internalType": "address",
          "name": "next",
          "type": "address"
        }
      ],
      "name": "AuthorizedWriterUpdated",
      "type": "event"
    },
    {
      "anonymous": false,
      "inputs": [
        {
          "indexed": true,
          "internalType": "uint256",
          "name": "gameId",
          "type": "uint256"
        },
        {
          "indexed": true,
          "internalType": "address",
          "name": "player",
          "type": "address"
        },
        {
          "indexed": false,
          "internalType": "bytes32",
          "name": "blobId",
          "type": "bytes32"
        }
      ],
      "name": "BlobRecorded",
      "type": "event"
    },
    {
      "anonymous": false,
      "inputs": [
        {
          "indexed": true,
          "internalType": "address",
          "name": "previousOwner",
          "type": "address"
        },
        {
          "indexed": true,
          "internalType": "address",
          "name": "newOwner",
          "type": "address"
        }
      ],
      "name": "OwnershipTransferred",
      "type": "event"
    },
    {
      "inputs": [],
      "name": "authorizedWriter",
      "outputs": [
        {
          "internalType": "address",
          "name": "",
          "type": "address"
        }
      ],
      "stateMutability": "view",
      "type": "function"
    },
    {
      "inputs": [
        {
          "internalType": "uint256",
          "name": "",
          "type": "uint256"
        },
        {
          "internalType": "address",
          "name": "",
          "type": "address"
        }
      ],
      "name": "blobs",
      "outputs": [
        {
          "internalType": "bytes32",
          "name": "",
          "type": "bytes32"
        }
      ],
      "stateMutability": "view",
      "type": "function"
    },
    {
      "inputs": [],
      "name": "gameResults",
      "outputs": [
        {
          "internalType": "contract IGameResults",
          "name": "",
          "type": "address"
        }
      ],
      "stateMutability": "view",
      "type": "function"
    },
    {
      "inputs": [
        {
          "internalType": "uint256",
          "name": "gameId",
          "type": "uint256"
        },
        {
          "internalType": "address",
          "name": "player",
          "type": "address"
        }
      ],
      "name": "getBlob",
      "outputs": [
        {
          "internalType": "bytes32",
          "name": "",
          "type": "bytes32"
        }
      ],
      "stateMutability": "view",
      "type": "function"
    },
    {
      "inputs": [],
      "name": "owner",
      "outputs": [
        {
          "internalType": "address",
          "name": "",
          "type": "address"
        }
      ],
      "stateMutability": "view",
      "type": "function"
    },
    {
      "inputs": [
        {
          "internalType": "uint256",
          "name": "gameId",
          "type": "uint256"
        },
        {
          "internalType": "address",
          "name": "player",
          "type": "address"
        },
        {
          "internalType": "bytes32",
          "name": "blobId",
          "type": "bytes32"
        }
      ],
      "name": "record",
      "outputs": [],
      "stateMutability": "nonpayable",
      "type": "function"
    },
    {
      "inputs": [],
      "name": "renounceOwnership",
      "outputs": [],
      "stateMutability": "nonpayable",
      "type": "function"
    },
    {
      "inputs": [
        {
          "internalType": "address",
          "name": "_writer",
          "type": "address"
        }
      ],
      "name": "setAuthorizedWriter",
      "outputs": [],
      "stateMutability": "nonpayable",
      "type": "function"
    },
    {
      "inputs": [
        {
          "internalType": "address",
          "name": "newOwner",
          "type": "address"
        }
      ],
      "name": "transferOwnership",
      "outputs": [],
      "stateMutability": "nonpayable",
      "type": "function"
    }
  ],
  "bytecode": "0x60a060405234801561001057600080fd5b506040516107fc3803806107fc83398101604081905261002f916100f3565b338061005557604051631e4fbdf760e01b81526000600482015260240160405180910390fd5b61005e81610087565b506001600160a01b03918216608052600180546001600160a01b03191691909216179055610126565b600080546001600160a01b038381166001600160a01b0319831681178455604051919092169283917f8be0079c531659141344cd1fd0a4f28419497f9722a3daafe3b4186f6b6457e09190a35050565b80516001600160a01b03811681146100ee57600080fd5b919050565b6000806040838503121561010657600080fd5b61010f836100d7565b915061011d602084016100d7565b90509250929050565b6080516106ae61014e6000396000818160fd0152818161022b01526102d401526106ae6000f3fe608060405234801561001057600080fd5b50600436106100835760003560e01c8063715018a6146100885780637228afde146100925780638da5cb5b146100d0578063a074e884146100e5578063ce720bca146100f8578063def3df8c1461011f578063dfe66dbf14610155578063e65aa74014610168578063f2fde38b1461017b575b600080fd5b61009061018e565b005b6100bd6100a0366004610521565b600260209081526000928352604080842090915290825290205481565b6040519081526020015b60405180910390f35b6100d86101a2565b6040516100c79190610551565b6100906100f3366004610565565b6101b1565b6100d87f000000000000000000000000000000000000000000000000000000000000000081565b6100bd61012d366004610521565b60009182526002602090815260408084206001600160a01b0393909316845291905290205490565b610090610163366004610589565b610215565b6001546100d8906001600160a01b031681565b610090610189366004610565565b610443565b61019661048a565b6101a060006104bc565b565b6000546001600160a01b031690565b6101b961048a565b6001546040516001600160a01b038084169216907f64aa5ae4edb01a511d93d12b45ac9ac778a84f11d28a1fc94d4a78b91c6c373a90600090a3600180546001600160a01b0319166001600160a01b0392909216919091179055565b604051630d8c89dd60e31b8152600481018490527f00000000000000000000000000000000000000000000000000000000000000006001600160a01b031690636c644ee890602401602060405180830381865afa15801561027a573d6000803e3d6000fd5b505050506040513d601f19601f8201168201806040525081019061029e91906105c1565b6102bb5760405163b1515f0560e01b815260040160405180910390fd5b60405163ed2df26d60e01b8152600481018490526000907f00000000000000000000000000000000000000000000000000000000000000006001600160a01b03169063ed2df26d90602401608060405180830381865afa158015610323573d6000803e3d6000fd5b505050506040513d601f19601f8201168201806040525081019061034791906105f3565b905080602001516001600160a01b0316836001600160a01b031614158015610385575080604001516001600160a01b0316836001600160a01b031614155b156103a35760405163721c7c6760e11b815260040160405180910390fd5b336001600160a01b038416148015906103c757506001546001600160a01b03163314155b156103e4576040516282b42960e81b815260040160405180910390fd5b60008481526002602090815260408083206001600160a01b038716808552908352928190208590555184815286917f5596fb4c783ca1a0bd451810612ea8aa3a13934918d0f342f2e367d453eabaf9910160405180910390a350505050565b61044b61048a565b6001600160a01b03811661047e576000604051631e4fbdf760e01b81526004016104759190610551565b60405180910390fd5b610487816104bc565b50565b336104936101a2565b6001600160a01b0316146101a0573360405163118cdaa760e01b81526004016104759190610551565b600080546001600160a01b038381166001600160a01b0319831681178455604051919092169283917f8be0079c531659141344cd1fd0a4f28419497f9722a3daafe3b4186f6b6457e09190a35050565b6001600160a01b038116811461048757600080fd5b6000806040838503121561053457600080fd5b8235915060208301356105468161050c565b809150509250929050565b6001600160a01b0391909116815260200190565b60006020828403121561057757600080fd5b81356105828161050c565b9392505050565b60008060006060848603121561059e57600080fd5b8335925060208401356105b08161050c565b929592945050506040919091013590565b6000602082840312156105d357600080fd5b8151801515811461058257600080fd5b80516105ee8161050c565b919050565b6000608082840312801561060657600080fd5b50604051600090608081016001600160401b038111828210171561063857634e487b7160e01b83526041600452602483fd5b60405283518152602084015161064d8161050c565b602082015261065e604085016105e3565b60408201526060938401519381019390935250909291505056fea26469706673582212208c00fc61777af6b408d678bfdec1c5d9b8262f3c9e247e1eca482576e656dc8764736f6c634300081c0033",
  "linkReferences": {},
  "deployedLinkReferences": {}
}